{
  "_format": "hh-sol-artifact-1",
  "contractName": "ScholarshipFactory",
  "sourceName": "contracts/ScholarshipFactory.sol",
  "abi": [
    {
      "inputs": [
        {
          "internalType": "address",
          "name": "initialOwner",
          "type": "address"
        },
        {
          "internalType": "address",
          "name": "_verifierAddress",
          "type": "address"
        }
      ],
      "stateMutability": "nonpayable",
      "type": "constructor"
    },
    {
      "inputs": [
        {
          "internalType": "address",
          "name": "owner",
          "type": "address"
        }
      ],
      "name": "OwnableInvalidOwner",
      "type": "error"
    },
    {
      "inputs": [
        {
          "internalType": "address",
          "name": "account",
          "type": "address"
        }
      ],
      "name": "OwnableUnauthorizedAccount",
      "type": "error"
    },
    {
      "inputs": [],
      "name": "ReentrancyGuardReentrantCall",
      "type": "error"
    },
    {
      "anonymous": false,
      "inputs": [
        {
          "indexed": true,
          "internalType": "address",
          "name": "companyAddress",
          "type": "address"
        }
      ],
      "name": "CompanyUnverified",
      "type": "event"
    },
    {
      "anonymous": false,
      "inputs": [
        {
          "indexed": true,
          "internalType": "address",
          "name": "companyAddress",
          "type": "address"
        }
      ],
      "name": "CompanyVerified",
      "type": "event"
    },
    {
      "anonymous": false,
      "inputs": [
        {
          "indexed": true,
          "internalType": "address",
          "name": "previousOwner",
          "type": "address"
        },
        {
          "indexed": true,
          "internalType": "address",
          "name": "newOwner",
          "type": "address"
        }
      ],
      "name": "OwnershipTransferred",
      "type": "event"
    },
    {
      "anonymous": false,
      "inputs": [
        {
          "indexed": true,
          "internalType": "address",
          "name": "scholarshipAddress",
          "type": "address"
        },
        {
          "indexed": true,
          "internalType": "address",
          "name": "company",
          "type": "address"
        },
        {
          "indexed": false,
          "internalType": "string",
          "name": "scholarshipTitle",
          "type": "string"
        },
        {
          "indexed": false,
          "internalType": "uint256",
          "name": "totalAmount",
          "type": "uint256"
        },
        {
          "indexed": false,
          "internalType": "uint256",
          "name": "scholarshipId",
          "type": "uint256"
        }
      ],
      "name": "ScholarshipCreated",
      "type": "event"
    },
    {
      "inputs": [
        {
          "internalType": "address",
          "name": "_company",
          "type": "address"
        }
      ],
      "name": "checkVerifiedAddress",
      "outputs": [
        {
          "internalType": "bool",
          "name": "",
          "type": "bool"
        }
      ],
      "stateMutability": "view",
      "type": "function"
    },
    {
      "inputs": [
        {
          "internalType": "address",
          "name": "",
          "type": "address"
        },
        {
          "internalType": "uint256",
          "name": "",
          "type": "uint256"
        }
      ],
      "name": "companyScholarships",
      "outputs": [
        {
          "internalType": "address",
          "name": "",
          "type": "address"
        }
      ],
      "stateMutability": "view",
      "type": "function"
    },
    {
      "inputs": [
        {
          "internalType": "string",
          "name": "_title",
          "type": "string"
        },
        {
          "internalType": "string",
          "name": "_description",
          "type": "string"
        },
        {
          "internalType": "uint256",
          "name": "_gpa",
          "type": "uint256"
        },
        {
          "internalType": "string",
          "name": "_additionalRequirements",
          "type": "string"
        },
        {
          "internalType": "uint256",
          "name": "_totalAmount",
          "type": "uint256"
        },
        {
          "internalType": "uint256",
          "name": "_deadline",
          "type": "uint256"
        },
        {
          "internalType": "string[]",
          "name": "_milestoneTitles",
          "type": "string[]"
        },
        {
          "internalType": "uint256[]",
          "name": "_milestoneAmounts",
          "type": "uint256[]"
        }
      ],
      "name": "createScholarship",
      "outputs": [
        {
          "internalType": "address",
          "name": "",
          "type": "address"
        }
      ],
      "stateMutability": "payable",
      "type": "function"
    },
    {
      "inputs": [
        {
          "internalType": "address",
          "name": "_company",
          "type": "address"
        }
      ],
      "name": "getCompanyScholarships",
      "outputs": [
        {
          "internalType": "address[]",
          "name": "",
          "type": "address[]"
        }
      ],
      "stateMutability": "view",
      "type": "function"
    },
    {
      "inputs": [
        {
          "internalType": "uint256",
          "name": "_index",
          "type": "uint256"
        }
      ],
      "name": "getScholarshipByIndex",
      "outputs": [
        {
          "internalType": "address",
          "name": "",
          "type": "address"
        }
      ],
      "stateMutability": "view",
      "type": "function"
    },
    {
      "inputs": [],
      "name": "getTotalScholarships",
      "outputs": [
        {
          "internalType": "uint256",
          "name": "",
          "type": "uint256"
        }
      ],
      "stateMutability": "view",
      "type": "function"
    },
    {
      "inputs": [],
      "name": "owner",
      "outputs": [
        {
          "internalType": "address",
          "name": "",
          "type": "address"
        }
      ],
      "stateMutability": "view",
      "type": "function"
    },
    {
      "inputs": [],
      "name": "renounceOwnership",
      "outputs": [],
      "stateMutability": "nonpayable",
      "type": "function"
    },
    {
      "inputs": [
        {
          "internalType": "uint256",
          "name": "",
          "type": "uint256"
        }
      ],
      "name": "scholarships",
      "outputs": [
        {
          "internalType": "address",
          "name": "",
          "type": "address"
        }
      ],
      "stateMutability": "view",
      "type": "function"
    },
    {
      "inputs": [
        {
          "internalType": "address",
          "name": "newOwner",
          "type": "address"
        }
      ],
      "name": "transferOwnership",
      "outputs": [],
      "stateMutability": "nonpayable",
      "type": "function"
    },
    {
      "inputs": [
        {
          "internalType": "address",
          "name": "_company",
          "type": "address"
        }
      ],
      "name": "unverifyAddress",
      "outputs": [],
      "stateMutability": "nonpayable",
      "type": "function"
    },
    {
      "inputs": [
        {
          "internalType": "address",
          "name": "",
          "type": "address"
        }
      ],
      "name": "verifiedCompanies",
      "outputs": [
        {
          "internalType": "bool",
          "name": "",
          "type": "bool"
        }
      ],
      "stateMutability": "view",
      "type": "function"
    },
    {
      "inputs": [],
      "name": "verifier",
      "outputs": [
        {
          "internalType": "contract IGroth16Verifier",
          "name": "",
          "type": "address"
        }
      ],
      "stateMutability": "view",
      "type": "function"
    },
    {
      "inputs": [],
      "name": "verifierAddress",
      "outputs": [
        {
          "internalType": "address",
          "name": "",
          "type": "address"
        }
      ],
      "stateMutability": "view",
      "type": "function"
    },
    {
      "inputs": [
        {
          "internalType": "address",
          "name": "_company",
          "type": "address"
        }
      ],
      "name": "verifyAddress",
      "outputs": [],
      "stateMutability": "nonpayable",
      "type": "function"
    },
    {
      "stateMutability": "payable",
      "type": "receive"
    }
  ],
  "bytecode": "0x608060405234801561001057600080fd5b506040516152723803806152728339818101604052810190610032919061022b565b81600073ffffffffffffffffffffffffffffffffffffffff168173ffffffffffffffffffffffffffffffffffffffff16036100a55760006040517f1e4fbdf700000000000000000000000000000000000000000000000000000000815260040161009c919061027a565b60405180910390fd5b6100b48161010460201b60201c565b506001808190555080600360006101000a81548173ffffffffffffffffffffffffffffffffffffffff021916908373ffffffffffffffffffffffffffffffffffffffff1602179055505050610295565b60008060009054906101000a900473ffffffffffffffffffffffffffffffffffffffff169050816000806101000a81548173ffffffffffffffffffffffffffffffffffffffff021916908373ffffffffffffffffffffffffffffffffffffffff1602179055508173ffffffffffffffffffffffffffffffffffffffff168173ffffffffffffffffffffffffffffffffffffffff167f8be0079c531659141344cd1fd0a4f28419497f9722a3daafe3b4186f6b6457e060405160405180910390a35050565b600080fd5b600073ffffffffffffffffffffffffffffffffffffffff82169050919050565b60006101f8826101cd565b9050919050565b610208816101ed565b811461021357600080fd5b50565b600081519050610225816101ff565b92915050565b60008060408385031215610242576102416101c8565b5b600061025085828601610216565b925050602061026185828601610216565b9150509250929050565b610274816101ed565b82525050565b600060208201905061028f600083018461026b565b92915050565b614fce806102a46000396000f3fe6080604052600436106100ec5760003560e01c80638d7f3d661161008a578063c8e6fb2311610059578063c8e6fb231461031a578063e9910c2914610357578063f2fde38b14610382578063fcb2cafc146103ab576100f3565b80638d7f3d661461024c5780638da5cb5b14610289578063b5980f7d146102b4578063b5c0c776146102dd576100f3565b806331a37632116100c657806331a376321461017e57806339dc58c6146101bb578063715018a6146101f85780638cf0bece1461020f576100f3565b80631082a84f146100f857806318bdffbb146101285780632b7ac3f314610153576100f3565b366100f357005b600080fd5b610112600480360381019061010d91906111d3565b6103d4565b60405161011f9190611356565b60405180910390f35b34801561013457600080fd5b5061013d61070b565b60405161014a9190611356565b60405180910390f35b34801561015f57600080fd5b50610168610731565b60405161017591906113d0565b60405180910390f35b34801561018a57600080fd5b506101a560048036038101906101a09190611417565b610757565b6040516101b2919061145f565b60405180910390f35b3480156101c757600080fd5b506101e260048036038101906101dd919061147a565b610777565b6040516101ef9190611356565b60405180910390f35b34801561020457600080fd5b5061020d6107b6565b005b34801561021b57600080fd5b5061023660048036038101906102319190611417565b6107ca565b604051610243919061145f565b60405180910390f35b34801561025857600080fd5b50610273600480360381019061026e91906114a7565b610820565b6040516102809190611356565b60405180910390f35b34801561029557600080fd5b5061029e61086e565b6040516102ab9190611356565b60405180910390f35b3480156102c057600080fd5b506102db60048036038101906102d69190611417565b610897565b005b3480156102e957600080fd5b5061030460048036038101906102ff9190611417565b6109c9565b60405161031191906115a5565b60405180910390f35b34801561032657600080fd5b50610341600480360381019061033c919061147a565b610a96565b60405161034e9190611356565b60405180910390f35b34801561036357600080fd5b5061036c610b25565b60405161037991906115d6565b60405180910390f35b34801561038e57600080fd5b506103a960048036038101906103a49190611417565b610b32565b005b3480156103b757600080fd5b506103d260048036038101906103cd9190611417565b610bb8565b005b60006103de610ceb565b600760003373ffffffffffffffffffffffffffffffffffffffff1673ffffffffffffffffffffffffffffffffffffffff16815260200190815260200160002060009054906101000a900460ff1661046a576040517f08c379a00000000000000000000000000000000000000000000000000000000081526004016104619061164e565b60405180910390fd5b843410156104ad576040517f08c379a00000000000000000000000000000000000000000000000000000000081526004016104a4906116ba565b60405180910390fd5b81518351146104f1576040517f08c379a00000000000000000000000000000000000000000000000000000000081526004016104e890611726565b60405180910390fd5b6000600454905060016004600082825461050b9190611775565b92505081905550600034338c8c8c8c8c8c8c8c600360009054906101000a900473ffffffffffffffffffffffffffffffffffffffff1660405161054d90610e8d565b6105609a999897969594939291906119e1565b6040518091039082f090508015801561057d573d6000803e3d6000fd5b50905060008190506005819080600181540180825580915050600190039060005260206000200160009091909190916101000a81548173ffffffffffffffffffffffffffffffffffffffff021916908373ffffffffffffffffffffffffffffffffffffffff160217905550600660003373ffffffffffffffffffffffffffffffffffffffff1673ffffffffffffffffffffffffffffffffffffffff168152602001908152602001600020819080600181540180825580915050600190039060005260206000200160009091909190916101000a81548173ffffffffffffffffffffffffffffffffffffffff021916908373ffffffffffffffffffffffffffffffffffffffff1602179055503373ffffffffffffffffffffffffffffffffffffffff168173ffffffffffffffffffffffffffffffffffffffff167f9daa2a6e06c41a601304dd82a7bfc90f5ddf06835bc3a4ee7341b4e1de3232d48e8b876040516106e993929190611aa0565b60405180910390a38093505050506106ff610d31565b98975050505050505050565b600360009054906101000a900473ffffffffffffffffffffffffffffffffffffffff1681565b600260009054906101000a900473ffffffffffffffffffffffffffffffffffffffff1681565b60076020528060005260406000206000915054906101000a900460ff1681565b6005818154811061078757600080fd5b906000526020600020016000915054906101000a900473ffffffffffffffffffffffffffffffffffffffff1681565b6107be610d3a565b6107c86000610dc1565b565b6000600760008373ffffffffffffffffffffffffffffffffffffffff1673ffffffffffffffffffffffffffffffffffffffff16815260200190815260200160002060009054906101000a900460ff169050919050565b6006602052816000526040600020818154811061083c57600080fd5b906000526020600020016000915091509054906101000a900473ffffffffffffffffffffffffffffffffffffffff1681565b60008060009054906101000a900473ffffffffffffffffffffffffffffffffffffffff16905090565b61089f610d3a565b600760008273ffffffffffffffffffffffffffffffffffffffff1673ffffffffffffffffffffffffffffffffffffffff16815260200190815260200160002060009054906101000a900460ff1661092b576040517f08c379a00000000000000000000000000000000000000000000000000000000081526004016109229061164e565b60405180910390fd5b6000600760008373ffffffffffffffffffffffffffffffffffffffff1673ffffffffffffffffffffffffffffffffffffffff16815260200190815260200160002060006101000a81548160ff0219169083151502179055508073ffffffffffffffffffffffffffffffffffffffff167ff542dcf01750d629597031a3d8d24096aa8a40eabb02f3faec27d40b6c5725ce60405160405180910390a250565b6060600660008373ffffffffffffffffffffffffffffffffffffffff1673ffffffffffffffffffffffffffffffffffffffff168152602001908152602001600020805480602002602001604051908101604052809291908181526020018280548015610a8a57602002820191906000526020600020905b8160009054906101000a900473ffffffffffffffffffffffffffffffffffffffff1673ffffffffffffffffffffffffffffffffffffffff1681526020019060010190808311610a40575b50505050509050919050565b60006005805490508210610adf576040517f08c379a0000000000000000000000000000000000000000000000000000000008152600401610ad690611b2a565b60405180910390fd5b60058281548110610af357610af2611b4a565b5b9060005260206000200160009054906101000a900473ffffffffffffffffffffffffffffffffffffffff169050919050565b6000600580549050905090565b610b3a610d3a565b600073ffffffffffffffffffffffffffffffffffffffff168173ffffffffffffffffffffffffffffffffffffffff1603610bac5760006040517f1e4fbdf7000000000000000000000000000000000000000000000000000000008152600401610ba39190611356565b60405180910390fd5b610bb581610dc1565b50565b610bc0610d3a565b600760008273ffffffffffffffffffffffffffffffffffffffff1673ffffffffffffffffffffffffffffffffffffffff16815260200190815260200160002060009054906101000a900460ff1615610c4d576040517f08c379a0000000000000000000000000000000000000000000000000000000008152600401610c4490611bc5565b60405180910390fd5b6001600760008373ffffffffffffffffffffffffffffffffffffffff1673ffffffffffffffffffffffffffffffffffffffff16815260200190815260200160002060006101000a81548160ff0219169083151502179055508073ffffffffffffffffffffffffffffffffffffffff167f72d95b5ce3143d0ea8146e1d68ee36cc9a2996cefe06712c98f4b59041583f1160405160405180910390a250565b600260015403610d27576040517f3ee5aeb500000000000000000000000000000000000000000000000000000000815260040160405180910390fd5b6002600181905550565b60018081905550565b610d42610e85565b73ffffffffffffffffffffffffffffffffffffffff16610d6061086e565b73ffffffffffffffffffffffffffffffffffffffff1614610dbf57610d83610e85565b6040517f118cdaa7000000000000000000000000000000000000000000000000000000008152600401610db69190611356565b60405180910390fd5b565b60008060009054906101000a900473ffffffffffffffffffffffffffffffffffffffff169050816000806101000a81548173ffffffffffffffffffffffffffffffffffffffff021916908373ffffffffffffffffffffffffffffffffffffffff1602179055508173ffffffffffffffffffffffffffffffffffffffff168173ffffffffffffffffffffffffffffffffffffffff167f8be0079c531659141344cd1fd0a4f28419497f9722a3daafe3b4186f6b6457e060405160405180910390a35050565b600033905090565b6133b380611be683390190565b6000604051905090565b600080fd5b600080fd5b600080fd5b600080fd5b6000601f19601f8301169050919050565b7f4e487b7100000000000000000000000000000000000000000000000000000000600052604160045260246000fd5b610f0182610eb8565b810181811067ffffffffffffffff82111715610f2057610f1f610ec9565b5b80604052505050565b6000610f33610e9a565b9050610f3f8282610ef8565b919050565b600067ffffffffffffffff821115610f5f57610f5e610ec9565b5b610f6882610eb8565b9050602081019050919050565b82818337600083830152505050565b6000610f97610f9284610f44565b610f29565b905082815260208101848484011115610fb357610fb2610eb3565b5b610fbe848285610f75565b509392505050565b600082601f830112610fdb57610fda610eae565b5b8135610feb848260208601610f84565b91505092915050565b6000819050919050565b61100781610ff4565b811461101257600080fd5b50565b60008135905061102481610ffe565b92915050565b600067ffffffffffffffff82111561104557611044610ec9565b5b602082029050602081019050919050565b600080fd5b600061106e6110698461102a565b610f29565b9050808382526020820190506020840283018581111561109157611090611056565b5b835b818110156110d857803567ffffffffffffffff8111156110b6576110b5610eae565b5b8086016110c38982610fc6565b85526020850194505050602081019050611093565b5050509392505050565b600082601f8301126110f7576110f6610eae565b5b813561110784826020860161105b565b91505092915050565b600067ffffffffffffffff82111561112b5761112a610ec9565b5b602082029050602081019050919050565b600061114f61114a84611110565b610f29565b9050808382526020820190506020840283018581111561117257611171611056565b5b835b8181101561119b57806111878882611015565b845260208401935050602081019050611174565b5050509392505050565b600082601f8301126111ba576111b9610eae565b5b81356111ca84826020860161113c565b91505092915050565b600080600080600080600080610100898b0312156111f4576111f3610ea4565b5b600089013567ffffffffffffffff81111561121257611211610ea9565b5b61121e8b828c01610fc6565b985050602089013567ffffffffffffffff81111561123f5761123e610ea9565b5b61124b8b828c01610fc6565b975050604061125c8b828c01611015565b965050606089013567ffffffffffffffff81111561127d5761127c610ea9565b5b6112898b828c01610fc6565b955050608061129a8b828c01611015565b94505060a06112ab8b828c01611015565b93505060c089013567ffffffffffffffff8111156112cc576112cb610ea9565b5b6112d88b828c016110e2565b92505060e089013567ffffffffffffffff8111156112f9576112f8610ea9565b5b6113058b828c016111a5565b9150509295985092959890939650565b600073ffffffffffffffffffffffffffffffffffffffff82169050919050565b600061134082611315565b9050919050565b61135081611335565b82525050565b600060208201905061136b6000830184611347565b92915050565b6000819050919050565b600061139661139161138c84611315565b611371565b611315565b9050919050565b60006113a88261137b565b9050919050565b60006113ba8261139d565b9050919050565b6113ca816113af565b82525050565b60006020820190506113e560008301846113c1565b92915050565b6113f481611335565b81146113ff57600080fd5b50565b600081359050611411816113eb565b92915050565b60006020828403121561142d5761142c610ea4565b5b600061143b84828501611402565b91505092915050565b60008115159050919050565b61145981611444565b82525050565b60006020820190506114746000830184611450565b92915050565b6000602082840312156114905761148f610ea4565b5b600061149e84828501611015565b91505092915050565b600080604083850312156114be576114bd610ea4565b5b60006114cc85828601611402565b92505060206114dd85828601611015565b9150509250929050565b600081519050919050565b600082825260208201905092915050565b6000819050602082019050919050565b61151c81611335565b82525050565b600061152e8383611513565b60208301905092915050565b6000602082019050919050565b6000611552826114e7565b61155c81856114f2565b935061156783611503565b8060005b8381101561159857815161157f8882611522565b975061158a8361153a565b92505060018101905061156b565b5085935050505092915050565b600060208201905081810360008301526115bf8184611547565b905092915050565b6115d081610ff4565b82525050565b60006020820190506115eb60008301846115c7565b92915050565b600082825260208201905092915050565b7f41646472657373206e6f74207665726966696564000000000000000000000000600082015250565b60006116386014836115f1565b915061164382611602565b602082019050919050565b600060208201905081810360008301526116678161162b565b9050919050565b7f496e73756666696369656e742066756e64732073656e74000000000000000000600082015250565b60006116a46017836115f1565b91506116af8261166e565b602082019050919050565b600060208201905081810360008301526116d381611697565b9050919050565b7f4d696c6573746f6e652064617461206d69736d61746368000000000000000000600082015250565b60006117106017836115f1565b915061171b826116da565b602082019050919050565b6000602082019050818103600083015261173f81611703565b9050919050565b7f4e487b7100000000000000000000000000000000000000000000000000000000600052601160045260246000fd5b600061178082610ff4565b915061178b83610ff4565b92508282019050808211156117a3576117a2611746565b5b92915050565b600081519050919050565b60005b838110156117d25780820151818401526020810190506117b7565b60008484015250505050565b60006117e9826117a9565b6117f381856115f1565b93506118038185602086016117b4565b61180c81610eb8565b840191505092915050565b600081519050919050565b600082825260208201905092915050565b6000819050602082019050919050565b600082825260208201905092915050565b600061185f826117a9565b6118698185611843565b93506118798185602086016117b4565b61188281610eb8565b840191505092915050565b60006118998383611854565b905092915050565b6000602082019050919050565b60006118b982611817565b6118c38185611822565b9350836020820285016118d585611833565b8060005b8581101561191157848403895281516118f2858261188d565b94506118fd836118a1565b925060208a019950506001810190506118d9565b50829750879550505050505092915050565b600081519050919050565b600082825260208201905092915050565b6000819050602082019050919050565b61195881610ff4565b82525050565b600061196a838361194f565b60208301905092915050565b6000602082019050919050565b600061198e82611923565b611998818561192e565b93506119a38361193f565b8060005b838110156119d45781516119bb888261195e565b97506119c683611976565b9250506001810190506119a7565b5085935050505092915050565b6000610140820190506119f7600083018d611347565b8181036020830152611a09818c6117de565b90508181036040830152611a1d818b6117de565b9050611a2c606083018a6115c7565b8181036080830152611a3e81896117de565b9050611a4d60a08301886115c7565b611a5a60c08301876115c7565b81810360e0830152611a6c81866118ae565b9050818103610100830152611a818185611983565b9050611a91610120830184611347565b9b9a5050505050505050505050565b60006060820190508181036000830152611aba81866117de565b9050611ac960208301856115c7565b611ad660408301846115c7565b949350505050565b7f496e646578206f7574206f6620626f756e647300000000000000000000000000600082015250565b6000611b146013836115f1565b9150611b1f82611ade565b602082019050919050565b60006020820190508181036000830152611b4381611b07565b9050919050565b7f4e487b7100000000000000000000000000000000000000000000000000000000600052603260045260246000fd5b7f4164647265737320616c72656164792076657269666965640000000000000000600082015250565b6000611baf6018836115f1565b9150611bba82611b79565b602082019050919050565b60006020820190508181036000830152611bde81611ba2565b905091905056fe60806040526040516133b33803806133b3833981810160405281019061002591906106d2565b600160008190555042841161006f576040517f08c379a00000000000000000000000000000000000000000000000000000000081526004016100669061089a565b60405180910390fd5b81518351146100b3576040517f08c379a00000000000000000000000000000000000000000000000000000000081526004016100aa90610906565b60405180910390fd5b600080600090505b83518110156101b8578381815181106100d7576100d6610926565b5b6020026020010151826100ea9190610984565b91506009604051806060016040528087848151811061010c5761010b610926565b5b6020026020010151815260200186848151811061012c5761012b610926565b5b60200260200101518152602001600015158152509080600181540180825580915050600190039060005260206000209060030201600090919091909150600082015181600001908161017e9190610bcf565b506020820151816001015560408201518160020160006101000a81548160ff021916908315150217905550505080806001019150506100bb565b508581146101fb576040517f08c379a00000000000000000000000000000000000000000000000000000000081526004016101f290610ced565b60405180910390fd5b8a600160006101000a81548173ffffffffffffffffffffffffffffffffffffffff021916908373ffffffffffffffffffffffffffffffffffffffff160217905550896002908161024b9190610bcf565b50886003908161025b9190610bcf565b5085600681905550846007819055506000600860006101000a81548160ff021916908360038111156102905761028f610d0d565b5b021790555060405180604001604052808981526020018881525060046000820151816000015560208201518160010190816102cb9190610bcf565b5090505081600860016101000a81548173ffffffffffffffffffffffffffffffffffffffff021916908373ffffffffffffffffffffffffffffffffffffffff1602179055505050505050505050505050610d3c565b6000604051905090565b600080fd5b600080fd5b600073ffffffffffffffffffffffffffffffffffffffff82169050919050565b600061035f82610334565b9050919050565b61036f81610354565b811461037a57600080fd5b50565b60008151905061038c81610366565b92915050565b600080fd5b600080fd5b6000601f19601f8301169050919050565b7f4e487b7100000000000000000000000000000000000000000000000000000000600052604160045260246000fd5b6103e58261039c565b810181811067ffffffffffffffff82111715610404576104036103ad565b5b80604052505050565b6000610417610320565b905061042382826103dc565b919050565b600067ffffffffffffffff821115610443576104426103ad565b5b61044c8261039c565b9050602081019050919050565b60005b8381101561047757808201518184015260208101905061045c565b60008484015250505050565b600061049661049184610428565b61040d565b9050828152602081018484840111156104b2576104b1610397565b5b6104bd848285610459565b509392505050565b600082601f8301126104da576104d9610392565b5b81516104ea848260208601610483565b91505092915050565b6000819050919050565b610506816104f3565b811461051157600080fd5b50565b600081519050610523816104fd565b92915050565b600067ffffffffffffffff821115610544576105436103ad565b5b602082029050602081019050919050565b600080fd5b600061056d61056884610529565b61040d565b905080838252602082019050602084028301858111156105905761058f610555565b5b835b818110156105d757805167ffffffffffffffff8111156105b5576105b4610392565b5b8086016105c289826104c5565b85526020850194505050602081019050610592565b5050509392505050565b600082601f8301126105f6576105f5610392565b5b815161060684826020860161055a565b91505092915050565b600067ffffffffffffffff82111561062a576106296103ad565b5b602082029050602081019050919050565b600061064e6106498461060f565b61040d565b9050808382526020820190506020840283018581111561067157610670610555565b5b835b8181101561069a57806106868882610514565b845260208401935050602081019050610673565b5050509392505050565b600082601f8301126106b9576106b8610392565b5b81516106c984826020860161063b565b91505092915050565b6000806000806000806000806000806101408b8d0312156106f6576106f561032a565b5b60006107048d828e0161037d565b9a505060208b015167ffffffffffffffff8111156107255761072461032f565b5b6107318d828e016104c5565b99505060408b015167ffffffffffffffff8111156107525761075161032f565b5b61075e8d828e016104c5565b985050606061076f8d828e01610514565b97505060808b015167ffffffffffffffff8111156107905761078f61032f565b5b61079c8d828e016104c5565b96505060a06107ad8d828e01610514565b95505060c06107be8d828e01610514565b94505060e08b015167ffffffffffffffff8111156107df576107de61032f565b5b6107eb8d828e016105e1565b9350506101008b015167ffffffffffffffff81111561080d5761080c61032f565b5b6108198d828e016106a4565b92505061012061082b8d828e0161037d565b9150509295989b9194979a5092959850565b600082825260208201905092915050565b7f496e76616c696420646561646c696e6500000000000000000000000000000000600082015250565b600061088460108361083d565b915061088f8261084e565b602082019050919050565b600060208201905081810360008301526108b381610877565b9050919050565b7f496e76616c6964206d696c6573746f6e65730000000000000000000000000000600082015250565b60006108f060128361083d565b91506108fb826108ba565b602082019050919050565b6000602082019050818103600083015261091f816108e3565b9050919050565b7f4e487b7100000000000000000000000000000000000000000000000000000000600052603260045260246000fd5b7f4e487b7100000000000000000000000000000000000000000000000000000000600052601160045260246000fd5b600061098f826104f3565b915061099a836104f3565b92508282019050808211156109b2576109b1610955565b5b92915050565b600081519050919050565b7f4e487b7100000000000000000000000000000000000000000000000000000000600052602260045260246000fd5b60006002820490506001821680610a0a57607f821691505b602082108103610a1d57610a1c6109c3565b5b50919050565b60008190508160005260206000209050919050565b60006020601f8301049050919050565b600082821b905092915050565b600060088302610a857fffffffffffffffffffffffffffffffffffffffffffffffffffffffffffffffff82610a48565b610a8f8683610a48565b95508019841693508086168417925050509392505050565b6000819050919050565b6000610acc610ac7610ac2846104f3565b610aa7565b6104f3565b9050919050565b6000819050919050565b610ae683610ab1565b610afa610af282610ad3565b848454610a55565b825550505050565b600090565b610b0f610b02565b610b1a818484610add565b505050565b5b81811015610b3e57610b33600082610b07565b600181019050610b20565b5050565b601f821115610b8357610b5481610a23565b610b5d84610a38565b81016020851015610b6c578190505b610b80610b7885610a38565b830182610b1f565b50505b505050565b600082821c905092915050565b6000610ba660001984600802610b88565b1980831691505092915050565b6000610bbf8383610b95565b9150826002028217905092915050565b610bd8826109b8565b67ffffffffffffffff811115610bf157610bf06103ad565b5b610bfb82546109f2565b610c06828285610b42565b600060209050601f831160018114610c395760008415610c27578287015190505b610c318582610bb3565b865550610c99565b601f198416610c4786610a23565b60005b82811015610c6f57848901518255600182019150602085019450602081019050610c4a565b86831015610c8c5784890151610c88601f891682610b95565b8355505b6001600288020188555050505b505050505050565b7f4d696c6573746f6e652073756d206d69736d6174636800000000000000000000600082015250565b6000610cd760168361083d565b9150610ce282610ca1565b602082019050919050565b60006020820190508181036000830152610d0681610cca565b9050919050565b7f4e487b7100000000000000000000000000000000000000000000000000000000600052602160045260246000fd5b61266880610d4b6000396000f3fe6080604052600436106101185760003560e01c80634fa4842d116100a05780637284e416116100645780637284e41614610398578063d8e0ceaf146103c3578063e89e4ed6146103ec578063eeb4bdd31461042b578063f8a904d91461046857610119565b80634fa4842d146102af5780635a7da884146102da57806363de5323146103055780636904c94d146103425780636f9fb98a1461036d57610119565b80632442e1cb116100e75780632442e1cb146101c657806325d262ab1461020557806329dcb0cf1461022e5780632b7ac3f3146102595780634a79d50c1461028457610119565b80630dc140001461011b578063137d0f8a146101475780631a39d8ef14610170578063200d2ed21461019b57610119565b5b005b34801561012757600080fd5b506101306104a7565b60405161013e929190611621565b60405180910390f35b34801561015357600080fd5b5061016e600480360381019061016991906116be565b610541565b005b34801561017c57600080fd5b50610185610852565b60405161019291906116eb565b60405180910390f35b3480156101a757600080fd5b506101b0610858565b6040516101bd919061177d565b60405180910390f35b3480156101d257600080fd5b506101ed60048036038101906101e891906117c4565b61086b565b6040516101fc9392919061180c565b60405180910390f35b34801561021157600080fd5b5061022c60048036038101906102279190611ae2565b610992565b005b34801561023a57600080fd5b50610243610ced565b60405161025091906116eb565b60405180910390f35b34801561026557600080fd5b5061026e610cf3565b60405161027b9190611baa565b60405180910390f35b34801561029057600080fd5b50610299610d19565b6040516102a69190611bc5565b60405180910390f35b3480156102bb57600080fd5b506102c4610da7565b6040516102d1919061177d565b60405180910390f35b3480156102e657600080fd5b506102ef610dbe565b6040516102fc91906116eb565b60405180910390f35b34801561031157600080fd5b5061032c600480360381019061032791906117c4565b610dcb565b6040516103399190611bf6565b60405180910390f35b34801561034e57600080fd5b50610357610e0a565b6040516103649190611bf6565b60405180910390f35b34801561037957600080fd5b50610382610e30565b60405161038f91906116eb565b60405180910390f35b3480156103a457600080fd5b506103ad610e38565b6040516103ba9190611bc5565b60405180910390f35b3480156103cf57600080fd5b506103ea60048036038101906103e59190611c11565b610ec6565b005b3480156103f857600080fd5b50610413600480360381019061040e91906117c4565b6112f2565b6040516104229392919061180c565b60405180910390f35b34801561043757600080fd5b50610452600480360381019061044d91906117c4565b6113c1565b60405161045f9190611bf6565b60405180910390f35b34801561047457600080fd5b5061048f600480360381019061048a91906116be565b611400565b60405161049e93929190611c51565b60405180910390f35b60048060000154908060010180546104be90611cb7565b80601f01602080910402602001604051908101604052809291908181526020018280546104ea90611cb7565b80156105375780601f1061050c57610100808354040283529160200191610537565b820191906000526020600020905b81548152906001019060200180831161051a57829003601f168201915b5050505050905082565b600160009054906101000a900473ffffffffffffffffffffffffffffffffffffffff1673ffffffffffffffffffffffffffffffffffffffff163373ffffffffffffffffffffffffffffffffffffffff16146105d1576040517f08c379a00000000000000000000000000000000000000000000000000000000081526004016105c890611d34565b60405180910390fd5b6000600a60008373ffffffffffffffffffffffffffffffffffffffff1673ffffffffffffffffffffffffffffffffffffffff16815260200190815260200160002090508173ffffffffffffffffffffffffffffffffffffffff168160000160009054906101000a900473ffffffffffffffffffffffffffffffffffffffff1673ffffffffffffffffffffffffffffffffffffffff16146106a6576040517f08c379a000000000000000000000000000000000000000000000000000000000815260040161069d90611da0565b60405180910390fd5b8060000160149054906101000a900460ff16156106f8576040517f08c379a00000000000000000000000000000000000000000000000000000000081526004016106ef90611e0c565b60405180910390fd5b60018160000160146101000a81548160ff021916908315150217905550600c829080600181540180825580915050600190039060005260206000200160009091909190916101000a81548173ffffffffffffffffffffffffffffffffffffffff021916908373ffffffffffffffffffffffffffffffffffffffff1602179055506000600381111561078c5761078b611706565b5b600860009054906101000a900460ff1660038111156107ae576107ad611706565b5b03610817576001600860006101000a81548160ff021916908360038111156107d9576107d8611706565b5b02179055507f868ad1de21c5006b82e9773d752f36db2f3243e3c9da62cc78e881f593477778600160405161080e919061177d565b60405180910390a15b7fc7dcce16f8a05d81291894b586f661c7e1a9d685652b7e25428d70d877c9a46b826040516108469190611bf6565b60405180910390a15050565b60065481565b600860009054906101000a900460ff1681565b606060008060098054905084106108b7576040517f08c379a00000000000000000000000000000000000000000000000000000000081526004016108ae90611e78565b60405180910390fd5b6000600985815481106108cd576108cc611e98565b5b906000526020600020906003020190508060000181600101548260020160009054906101000a900460ff1682805461090490611cb7565b80601f016020809104026020016040519081016040528092919081815260200182805461093090611cb7565b801561097d5780601f106109525761010080835404028352916020019161097d565b820191906000526020600020905b81548152906001019060200180831161096057829003601f168201915b50505050509250935093509350509193909250565b600060038111156109a6576109a5611706565b5b600860009054906101000a900460ff1660038111156109c8576109c7611706565b5b14610a08576040517f08c379a00000000000000000000000000000000000000000000000000000000081526004016109ff90611f13565b60405180910390fd5b6007544210610a4c576040517f08c379a0000000000000000000000000000000000000000000000000000000008152600401610a4390611f7f565b60405180910390fd5b6000600860019054906101000a900473ffffffffffffffffffffffffffffffffffffffff1673ffffffffffffffffffffffffffffffffffffffff16635fe8c13b868686866040518563ffffffff1660e01b8152600401610aaf94939291906121cc565b602060405180830381865afa158015610acc573d6000803e3d6000fd5b505050506040513d601f19601f82011682018060405250810190610af0919061223f565b905080610b32576040517f08c379a0000000000000000000000000000000000000000000000000000000008152600401610b29906122b8565b60405180910390fd5b6000600a60003373ffffffffffffffffffffffffffffffffffffffff1673ffffffffffffffffffffffffffffffffffffffff1681526020019081526020016000209050600073ffffffffffffffffffffffffffffffffffffffff168160000160009054906101000a900473ffffffffffffffffffffffffffffffffffffffff1673ffffffffffffffffffffffffffffffffffffffff1614610c08576040517f08c379a0000000000000000000000000000000000000000000000000000000008152600401610bff90612324565b60405180910390fd5b338160000160006101000a81548173ffffffffffffffffffffffffffffffffffffffff021916908373ffffffffffffffffffffffffffffffffffffffff160217905550600b339080600181540180825580915050600190039060005260206000200160009091909190916101000a81548173ffffffffffffffffffffffffffffffffffffffff021916908373ffffffffffffffffffffffffffffffffffffffff1602179055507fdb66c4b4e24086cda1de99d9f43639fe2c92a546cadced9c87a7d56573dc0bc233604051610cdd9190611bf6565b60405180910390a1505050505050565b60075481565b600860019054906101000a900473ffffffffffffffffffffffffffffffffffffffff1681565b60028054610d2690611cb7565b80601f0160208091040260200160405190810160405280929190818152602001828054610d5290611cb7565b8015610d9f5780601f10610d7457610100808354040283529160200191610d9f565b820191906000526020600020905b815481529060010190602001808311610d8257829003601f168201915b505050505081565b6000600860009054906101000a900460ff16905090565b6000600980549050905090565b600b8181548110610ddb57600080fd5b906000526020600020016000915054906101000a900473ffffffffffffffffffffffffffffffffffffffff1681565b600160009054906101000a900473ffffffffffffffffffffffffffffffffffffffff1681565b600047905090565b60038054610e4590611cb7565b80601f0160208091040260200160405190810160405280929190818152602001828054610e7190611cb7565b8015610ebe5780601f10610e9357610100808354040283529160200191610ebe565b820191906000526020600020905b815481529060010190602001808311610ea157829003601f168201915b505050505081565b600160009054906101000a900473ffffffffffffffffffffffffffffffffffffffff1673ffffffffffffffffffffffffffffffffffffffff163373ffffffffffffffffffffffffffffffffffffffff1614610f56576040517f08c379a0000000000000000000000000000000000000000000000000000000008152600401610f4d90611d34565b60405180910390fd5b610f5e611457565b6009805490508110610fa5576040517f08c379a0000000000000000000000000000000000000000000000000000000008152600401610f9c90612390565b60405180910390fd5b6000600a60008473ffffffffffffffffffffffffffffffffffffffff1673ffffffffffffffffffffffffffffffffffffffff16815260200190815260200160002090508060000160149054906101000a900460ff16611039576040517f08c379a0000000000000000000000000000000000000000000000000000000008152600401611030906123fc565b60405180910390fd5b80600201600083815260200190815260200160002060009054906101000a900460ff161561109c576040517f08c379a000000000000000000000000000000000000000000000000000000000815260040161109390612468565b60405180910390fd5b600982815481106110b0576110af611e98565b5b906000526020600020906003020160020160009054906101000a900460ff161561110f576040517f08c379a0000000000000000000000000000000000000000000000000000000008152600401611106906124d4565b60405180910390fd5b60016009838154811061112557611124611e98565b5b906000526020600020906003020160020160006101000a81548160ff021916908315150217905550600181600201600084815260200190815260200160002060006101000a81548160ff02191690831515021790555060006009838154811061119157611190611e98565b5b90600052602060002090600302016001015490508082600101546111b59190612523565b826001018190555060008473ffffffffffffffffffffffffffffffffffffffff16826040516111e390612588565b60006040518083038185875af1925050503d8060008114611220576040519150601f19603f3d011682016040523d82523d6000602084013e611225565b606091505b5050905080611269576040517f08c379a0000000000000000000000000000000000000000000000000000000008152600401611260906125e9565b60405180910390fd5b7f221c08a06b07a64803b3787861a3f276212fcccb51c2e6234077a9b8cb13047a858360405161129a929190612609565b60405180910390a17fcf2fa48ea32f82bfaeea61fff946572d9c3cf6f6d756cdbfe114273febd0787885856040516112d3929190612609565b60405180910390a16112e361149d565b5050506112ee61156e565b5050565b6009818154811061130257600080fd5b906000526020600020906003020160009150905080600001805461132590611cb7565b80601f016020809104026020016040519081016040528092919081815260200182805461135190611cb7565b801561139e5780601f106113735761010080835404028352916020019161139e565b820191906000526020600020905b81548152906001019060200180831161138157829003601f168201915b5050505050908060010154908060020160009054906101000a900460ff16905083565b600c81815481106113d157600080fd5b906000526020600020016000915054906101000a900473ffffffffffffffffffffffffffffffffffffffff1681565b600a6020528060005260406000206000915090508060000160009054906101000a900473ffffffffffffffffffffffffffffffffffffffff16908060000160149054906101000a900460ff16908060010154905083565b600260005403611493576040517f3ee5aeb500000000000000000000000000000000000000000000000000000000815260040160405180910390fd5b6002600081905550565b60006001905060005b60098054905081101561150057600981815481106114c7576114c6611e98565b5b906000526020600020906003020160020160009054906101000a900460ff166114f35760009150611500565b80806001019150506114a6565b50801561156b576003600860006101000a81548160ff0219169083600381111561152d5761152c611706565b5b02179055507f868ad1de21c5006b82e9773d752f36db2f3243e3c9da62cc78e881f5934777786003604051611562919061177d565b60405180910390a15b50565b6001600081905550565b6000819050919050565b61158b81611578565b82525050565b600081519050919050565b600082825260208201905092915050565b60005b838110156115cb5780820151818401526020810190506115b0565b60008484015250505050565b6000601f19601f8301169050919050565b60006115f382611591565b6115fd818561159c565b935061160d8185602086016115ad565b611616816115d7565b840191505092915050565b60006040820190506116366000830185611582565b818103602083015261164881846115e8565b90509392505050565b6000604051905090565b600080fd5b600073ffffffffffffffffffffffffffffffffffffffff82169050919050565b600061168b82611660565b9050919050565b61169b81611680565b81146116a657600080fd5b50565b6000813590506116b881611692565b92915050565b6000602082840312156116d4576116d361165b565b5b60006116e2848285016116a9565b91505092915050565b60006020820190506117006000830184611582565b92915050565b7f4e487b7100000000000000000000000000000000000000000000000000000000600052602160045260246000fd5b6004811061174657611745611706565b5b50565b600081905061175782611735565b919050565b600061176782611749565b9050919050565b6117778161175c565b82525050565b6000602082019050611792600083018461176e565b92915050565b6117a181611578565b81146117ac57600080fd5b50565b6000813590506117be81611798565b92915050565b6000602082840312156117da576117d961165b565b5b60006117e8848285016117af565b91505092915050565b60008115159050919050565b611806816117f1565b82525050565b6000606082019050818103600083015261182681866115e8565b90506118356020830185611582565b61184260408301846117fd565b949350505050565b600080fd5b7f4e487b7100000000000000000000000000000000000000000000000000000000600052604160045260246000fd5b611887826115d7565b810181811067ffffffffffffffff821117156118a6576118a561184f565b5b80604052505050565b60006118b9611651565b90506118c5828261187e565b919050565b600067ffffffffffffffff8211156118e5576118e461184f565b5b602082029050919050565b600080fd5b6000611908611903846118ca565b6118af565b90508060208402830185811115611922576119216118f0565b5b835b8181101561194b578061193788826117af565b845260208401935050602081019050611924565b5050509392505050565b600082601f83011261196a5761196961184a565b5b60026119778482856118f5565b91505092915050565b600067ffffffffffffffff82111561199b5761199a61184f565b5b602082029050919050565b60006119b96119b484611980565b6118af565b905080604084028301858111156119d3576119d26118f0565b5b835b818110156119fc57806119e88882611955565b8452602084019350506040810190506119d5565b5050509392505050565b600082601f830112611a1b57611a1a61184a565b5b6002611a288482856119a6565b91505092915050565b600067ffffffffffffffff821115611a4c57611a4b61184f565b5b602082029050919050565b6000611a6a611a6584611a31565b6118af565b90508060208402830185811115611a8457611a836118f0565b5b835b81811015611aad5780611a9988826117af565b845260208401935050602081019050611a86565b5050509392505050565b600082601f830112611acc57611acb61184a565b5b6004611ad9848285611a57565b91505092915050565b6000806000806101808587031215611afd57611afc61165b565b5b6000611b0b87828801611955565b9450506040611b1c87828801611a06565b93505060c0611b2d87828801611955565b925050610100611b3f87828801611ab7565b91505092959194509250565b6000819050919050565b6000611b70611b6b611b6684611660565b611b4b565b611660565b9050919050565b6000611b8282611b55565b9050919050565b6000611b9482611b77565b9050919050565b611ba481611b89565b82525050565b6000602082019050611bbf6000830184611b9b565b92915050565b60006020820190508181036000830152611bdf81846115e8565b905092915050565b611bf081611680565b82525050565b6000602082019050611c0b6000830184611be7565b92915050565b60008060408385031215611c2857611c2761165b565b5b6000611c36858286016116a9565b9250506020611c47858286016117af565b9150509250929050565b6000606082019050611c666000830186611be7565b611c7360208301856117fd565b611c806040830184611582565b949350505050565b7f4e487b7100000000000000000000000000000000000000000000000000000000600052602260045260246000fd5b60006002820490506001821680611ccf57607f821691505b602082108103611ce257611ce1611c88565b5b50919050565b7f556e617574686f72697a65640000000000000000000000000000000000000000600082015250565b6000611d1e600c8361159c565b9150611d2982611ce8565b602082019050919050565b60006020820190508181036000830152611d4d81611d11565b9050919050565b7f4e6f7420616e206170706c6963616e7400000000000000000000000000000000600082015250565b6000611d8a60108361159c565b9150611d9582611d54565b602082019050919050565b60006020820190508181036000830152611db981611d7d565b9050919050565b7f416c726561647920617070726f76656400000000000000000000000000000000600082015250565b6000611df660108361159c565b9150611e0182611dc0565b602082019050919050565b60006020820190508181036000830152611e2581611de9565b9050919050565b7f496e76616c6964206d696c6573746f6e65204944000000000000000000000000600082015250565b6000611e6260148361159c565b9150611e6d82611e2c565b602082019050919050565b60006020820190508181036000830152611e9181611e55565b9050919050565b7f4e487b7100000000000000000000000000000000000000000000000000000000600052603260045260246000fd5b7f5363686f6c617273686970206e6f74206f70656e000000000000000000000000600082015250565b6000611efd60148361159c565b9150611f0882611ec7565b602082019050919050565b60006020820190508181036000830152611f2c81611ef0565b9050919050565b7f446561646c696e65207061737365640000000000000000000000000000000000600082015250565b6000611f69600f8361159c565b9150611f7482611f33565b602082019050919050565b60006020820190508181036000830152611f9881611f5c565b9050919050565b600060029050919050565b600081905092915050565b6000819050919050565b611fc881611578565b82525050565b6000611fda8383611fbf565b60208301905092915050565b6000602082019050919050565b611ffc81611f9f565b6120068184611faa565b925061201182611fb5565b8060005b838110156120425781516120298782611fce565b965061203483611fe6565b925050600181019050612015565b505050505050565b600060029050919050565b600081905092915050565b6000819050919050565b600081905092915050565b61207e81611f9f565b612088818461206a565b925061209382611fb5565b8060005b838110156120c45781516120ab8782611fce565b96506120b683611fe6565b925050600181019050612097565b505050505050565b60006120d88383612075565b60408301905092915050565b6000602082019050919050565b6120fa8161204a565b6121048184612055565b925061210f82612060565b8060005b8381101561214057815161212787826120cc565b9650612132836120e4565b925050600181019050612113565b505050505050565b600060049050919050565b600081905092915050565b6000819050919050565b6000602082019050919050565b61217e81612148565b6121888184612153565b92506121938261215e565b8060005b838110156121c45781516121ab8782611fce565b96506121b683612168565b925050600181019050612197565b505050505050565b6000610180820190506121e26000830187611ff3565b6121ef60408301866120f1565b6121fc60c0830185611ff3565b61220a610100830184612175565b95945050505050565b61221c816117f1565b811461222757600080fd5b50565b60008151905061223981612213565b92915050565b6000602082840312156122555761225461165b565b5b60006122638482850161222a565b91505092915050565b7f496e76616c6964205a4b2070726f6f6600000000000000000000000000000000600082015250565b60006122a260108361159c565b91506122ad8261226c565b602082019050919050565b600060208201905081810360008301526122d181612295565b9050919050565b7f416c7265616479206170706c6965640000000000000000000000000000000000600082015250565b600061230e600f8361159c565b9150612319826122d8565b602082019050919050565b6000602082019050818103600083015261233d81612301565b9050919050565b7f496e76616c6964206d696c6573746f6e65000000000000000000000000000000600082015250565b600061237a60118361159c565b915061238582612344565b602082019050919050565b600060208201905081810360008301526123a98161236d565b9050919050565b7f53747564656e74206e6f7420617070726f766564000000000000000000000000600082015250565b60006123e660148361159c565b91506123f1826123b0565b602082019050919050565b60006020820190508181036000830152612415816123d9565b9050919050565b7f4d696c6573746f6e6520636f6d706c6574656400000000000000000000000000600082015250565b600061245260138361159c565b915061245d8261241c565b602082019050919050565b6000602082019050818103600083015261248181612445565b9050919050565b7f4d696c6573746f6e6520616c726561647920636f6d706c657465640000000000600082015250565b60006124be601b8361159c565b91506124c982612488565b602082019050919050565b600060208201905081810360008301526124ed816124b1565b9050919050565b7f4e487b7100000000000000000000000000000000000000000000000000000000600052601160045260246000fd5b600061252e82611578565b915061253983611578565b9250828201905080821115612551576125506124f4565b5b92915050565b600081905092915050565b50565b6000612572600083612557565b915061257d82612562565b600082019050919050565b600061259382612565565b9150819050919050565b7f5061796d656e74206661696c6564000000000000000000000000000000000000600082015250565b60006125d3600e8361159c565b91506125de8261259d565b602082019050919050565b60006020820190508181036000830152612602816125c6565b9050919050565b600060408201905061261e6000830185611be7565b61262b6020830184611582565b939250505056fea2646970667358221220da879ed7a4fa55890e8824f77ac5ba17db8b81b25890495bd51203da9c959ee564736f6c634300081c0033a2646970667358221220484f5eadcd2c63716223b61af884296fc847be8fb7035942127140193a35b7eb64736f6c634300081c0033",
  "linkReferences": {},
  "deployedLinkReferences": {}
}