{
  "_format": "hh-sol-artifact-1",
  "contractName": "ScholarshipAutomationHandler",
  "sourceName": "contracts/ScholarshipAutomationHandler.sol",
  "abi": [
    {
      "inputs": [
        {
          "internalType": "address",
          "name": "_scholarshipFactoryAddress",
          "type": "address"
        }
      ],
      "stateMutability": "nonpayable",
      "type": "constructor"
    },
    {
      "anonymous": false,
      "inputs": [
        {
          "indexed": false,
          "internalType": "uint256",
          "name": "checkedCount",
          "type": "uint256"
        },
        {
          "indexed": false,
          "internalType": "uint256",
          "name": "needsUpkeepCount",
          "type": "uint256"
        }
      ],
      "name": "CheckCompleted",
      "type": "event"
    },
    {
      "anonymous": false,
      "inputs": [
        {
          "indexed": false,
          "internalType": "address",
          "name": "newFactoryAddress",
          "type": "address"
        }
      ],
      "name": "FactoryAddressUpdated",
      "type": "event"
    },
    {
      "anonymous": false,
      "inputs": [
        {
          "indexed": false,
          "internalType": "uint256",
          "name": "newCheckLimit",
          "type": "uint256"
        },
        {
          "indexed": false,
          "internalType": "uint256",
          "name": "newPerformLimit",
          "type": "uint256"
        }
      ],
      "name": "GasLimitUpdated",
      "type": "event"
    },
    {
      "anonymous": false,
      "inputs": [
        {
          "indexed": true,
          "internalType": "address",
          "name": "scholarshipAddress",
          "type": "address"
        },
        {
          "indexed": false,
          "internalType": "string",
          "name": "reason",
          "type": "string"
        }
      ],
      "name": "UpkeepFailed",
      "type": "event"
    },
    {
      "anonymous": false,
      "inputs": [
        {
          "indexed": true,
          "internalType": "address",
          "name": "scholarshipAddress",
          "type": "address"
        }
      ],
      "name": "UpkeepPerformed",
      "type": "event"
    },
    {
      "inputs": [
        {
          "internalType": "address[]",
          "name": "scholarshipAddresses",
          "type": "address[]"
        }
      ],
      "name": "batchTriggerUpkeep",
      "outputs": [],
      "stateMutability": "nonpayable",
      "type": "function"
    },
    {
      "inputs": [],
      "name": "checkGasLimit",
      "outputs": [
        {
          "internalType": "uint256",
          "name": "",
          "type": "uint256"
        }
      ],
      "stateMutability": "view",
      "type": "function"
    },
    {
      "inputs": [
        {
          "internalType": "bytes",
          "name": "",
          "type": "bytes"
        }
      ],
      "name": "checkUpkeep",
      "outputs": [
        {
          "internalType": "bool",
          "name": "upkeepNeeded",
          "type": "bool"
        },
        {
          "internalType": "bytes",
          "name": "performData",
          "type": "bytes"
        }
      ],
      "stateMutability": "view",
      "type": "function"
    },
    {
      "inputs": [
        {
          "internalType": "address",
          "name": "scholarshipAddress",
          "type": "address"
        }
      ],
      "name": "manualTriggerUpkeep",
      "outputs": [],
      "stateMutability": "nonpayable",
      "type": "function"
    },
    {
      "inputs": [],
      "name": "owner",
      "outputs": [
        {
          "internalType": "address",
          "name": "",
          "type": "address"
        }
      ],
      "stateMutability": "view",
      "type": "function"
    },
    {
      "inputs": [],
      "name": "performGasLimit",
      "outputs": [
        {
          "internalType": "uint256",
          "name": "",
          "type": "uint256"
        }
      ],
      "stateMutability": "view",
      "type": "function"
    },
    {
      "inputs": [
        {
          "internalType": "bytes",
          "name": "performData",
          "type": "bytes"
        }
      ],
      "name": "performUpkeep",
      "outputs": [],
      "stateMutability": "nonpayable",
      "type": "function"
    },
    {
      "inputs": [],
      "name": "scholarshipFactoryAddress",
      "outputs": [
        {
          "internalType": "address",
          "name": "",
          "type": "address"
        }
      ],
      "stateMutability": "view",
      "type": "function"
    },
    {
      "inputs": [
        {
          "internalType": "uint256",
          "name": "_checkGasLimit",
          "type": "uint256"
        },
        {
          "internalType": "uint256",
          "name": "_performGasLimit",
          "type": "uint256"
        }
      ],
      "name": "updateGasLimits",
      "outputs": [],
      "stateMutability": "nonpayable",
      "type": "function"
    },
    {
      "inputs": [
        {
          "internalType": "address",
          "name": "_newFactoryAddress",
          "type": "address"
        }
      ],
      "name": "updateScholarshipFactoryAddress",
      "outputs": [],
      "stateMutability": "nonpayable",
      "type": "function"
    },
    {
      "inputs": [],
      "name": "withdrawETH",
      "outputs": [],
      "stateMutability": "nonpayable",
      "type": "function"
    },
    {
      "stateMutability": "payable",
      "type": "receive"
    }
  ],
  "bytecode": "0x6080604052621e84806002556223186060035534801561001e57600080fd5b506040516114db3803806114db83398101604081905261003d916100ca565b6001600160a01b0381166100975760405162461bcd60e51b815260206004820152601760248201527f496e76616c696420666163746f72792061646472657373000000000000000000604482015260640160405180910390fd5b60008054336001600160a01b031991821617909155600180549091166001600160a01b03929092169190911790556100fa565b6000602082840312156100dc57600080fd5b81516001600160a01b03811681146100f357600080fd5b9392505050565b6113d2806101096000396000f3fe6080604052600436106100905760003560e01c8063089640ca1461009c5780630f9b8a68146100be5780634585e33b146100f457806349e7d8fb146101145780636e04ff0d1461013457806372dfc6831461016257806386d422f9146101825780638da5cb5b146101a2578063a49ffbcc146101c2578063e086e5ec146101e6578063ef94720d146101fb57600080fd5b3661009757005b600080fd5b3480156100a857600080fd5b506100bc6100b7366004610be3565b610211565b005b3480156100ca57600080fd5b506001546100de906001600160a01b031681565b6040516100eb9190610c05565b60405180910390f35b34801561010057600080fd5b506100bc61010f366004610c19565b6102e0565b34801561012057600080fd5b506100bc61012f366004610ca0565b610517565b34801561014057600080fd5b5061015461014f366004610c19565b6105e7565b6040516100eb929190610d14565b34801561016e57600080fd5b506100bc61017d366004610d37565b610870565b34801561018e57600080fd5b506100bc61019d366004610ca0565b610a02565b3480156101ae57600080fd5b506000546100de906001600160a01b031681565b3480156101ce57600080fd5b506101d860035481565b6040519081526020016100eb565b3480156101f257600080fd5b506100bc610b7f565b34801561020757600080fd5b506101d860025481565b6000546001600160a01b031633146102445760405162461bcd60e51b815260040161023b90610d9c565b60405180910390fd5b620186a0821180156102585750620186a081115b6102995760405162461bcd60e51b8152602060048201526012602482015271476173206c696d69747320746f6f206c6f7760701b604482015260640161023b565b6002829055600381905560408051838152602081018390527fccba8ee022ceb982c6ae406cb531d13a08c23aec7eec7406c1f34693bb650bf6910160405180910390a15050565b600080806102f084860186610f3b565b92509250925060008060005b838110156104c9578581815181106103165761031661101a565b60200260200101516001600160a01b0316634585e33b86838151811061033e5761033e61101a565b60200260200101516040518263ffffffff1660e01b81526004016103629190611030565b600060405180830381600087803b15801561037c57600080fd5b505af192505050801561038d575060015b61046d57610399611043565b806308c379a00361041357506103ad61105f565b806103b85750610415565b8682815181106103ca576103ca61101a565b60200260200101516001600160a01b031660008051602061137d833981519152826040516103f89190611030565b60405180910390a28261040a816110f8565b935050506104b8565b505b8581815181106104275761042761101a565b60200260200101516001600160a01b031660008051602061137d83398151915260405161045390611111565b60405180910390a281610465816110f8565b9250506104b8565b85818151811061047f5761047f61101a565b60200260200101516001600160a01b031660008051602061135d83398151915260405160405180910390a2826104b4816110f8565b9350505b6003545a106104c9576001016102fc565b507fad11bb4deaa27d5f095fa94ee0b1562ddffa6cfbb4c5e11f68e49c47c3bdf5b0836104f68385611138565b6040805192835260208301919091520160405180910390a150505050505050565b6000546001600160a01b031633146105415760405162461bcd60e51b815260040161023b90610d9c565b6001600160a01b0381166105915760405162461bcd60e51b8152602060048201526017602482015276496e76616c696420666163746f7279206164647265737360481b604482015260640161023b565b600180546001600160a01b0319166001600160a01b0383161790556040517f3a751f18199a14e0691c8d815e39a89c4197a020e5c5f3fe88b5ccaecfd76793906105dc908390610c05565b60405180910390a150565b600060606000600160009054906101000a90046001600160a01b03166001600160a01b031663fbd423706040518163ffffffff1660e01b8152600401600060405180830381865afa158015610640573d6000803e3d6000fd5b505050506040513d6000823e601f3d908101601f191682016040526106689190810190611151565b9050600081516001600160401b0381111561068557610685610dc9565b6040519080825280602002602001820160405280156106ae578160200160208202803683370190505b509050600082516001600160401b038111156106cc576106cc610dc9565b6040519080825280602002602001820160405280156106ff57816020015b60608152602001906001900390816106ea5790505b50905060008060005b8551811015610837576002545a106108375781610724816110f8565b9250508581815181106107395761073961101a565b60200260200101516001600160a01b0316636e04ff0d6040518163ffffffff1660e01b815260040161076a906111fb565b600060405180830381865afa9250505080156107a857506040513d6000823e601f3d908101601f191682016040526107a5919081019061120c565b60015b1561082f57811561082c578783815181106107c5576107c561101a565b60200260200101518786815181106107df576107df61101a565b60200260200101906001600160a01b031690816001600160a01b031681525050808686815181106108125761081261101a565b60200260200101819052508480610828906110f8565b9550505b50505b600101610708565b50600082119650838383604051602001610853939291906112a8565b604051602081830303815290604052955050505050509250929050565b6000546001600160a01b0316331461089a5760405162461bcd60e51b815260040161023b90610d9c565b60005b818110156109fd576003545a106109fd578282828181106108c0576108c061101a565b90506020020160208101906108d59190610ca0565b6001600160a01b0316634585e33b6040518163ffffffff1660e01b81526004016108fe906111fb565b600060405180830381600087803b15801561091857600080fd5b505af1925050508015610929575060015b6109aa5782828281811061093f5761093f61101a565b90506020020160208101906109549190610ca0565b6001600160a01b031660008051602061137d83398151915260405161099d9060208082526010908201526f115e1958dd5d1a5bdb8819985a5b195960821b604082015260600190565b60405180910390a26109f5565b8282828181106109bc576109bc61101a565b90506020020160208101906109d19190610ca0565b6001600160a01b031660008051602061135d83398151915260405160405180910390a25b60010161089d565b505050565b6000546001600160a01b03163314610a2c5760405162461bcd60e51b815260040161023b90610d9c565b6001600160a01b038116610a745760405162461bcd60e51b815260206004820152600f60248201526e496e76616c6964206164647265737360881b604482015260640161023b565b604051634585e33b60e01b81526001600160a01b03821690634585e33b90610a9e906004016111fb565b600060405180830381600087803b158015610ab857600080fd5b505af1925050508015610ac9575060015b610b5957610ad5611043565b806308c379a003610b275750610ae961105f565b80610af45750610b29565b816001600160a01b031660008051602061137d83398151915282604051610b1b9190611030565b60405180910390a25050565b505b806001600160a01b031660008051602061137d833981519152604051610b4e90611111565b60405180910390a250565b6040516001600160a01b0382169060008051602061135d83398151915290600090a25b50565b6000546001600160a01b03163314610ba95760405162461bcd60e51b815260040161023b90610d9c565b600080546040516001600160a01b03909116914780156108fc02929091818181858888f19350505050158015610b7c573d6000803e3d6000fd5b60008060408385031215610bf657600080fd5b50508035926020909101359150565b6001600160a01b0391909116815260200190565b60008060208385031215610c2c57600080fd5b82356001600160401b03811115610c4257600080fd5b8301601f81018513610c5357600080fd5b80356001600160401b03811115610c6957600080fd5b856020828401011115610c7b57600080fd5b6020919091019590945092505050565b6001600160a01b0381168114610b7c57600080fd5b600060208284031215610cb257600080fd5b8135610cbd81610c8b565b9392505050565b60005b83811015610cdf578181015183820152602001610cc7565b50506000910152565b60008151808452610d00816020860160208601610cc4565b601f01601f19169290920160200192915050565b8215158152604060208201526000610d2f6040830184610ce8565b949350505050565b60008060208385031215610d4a57600080fd5b82356001600160401b03811115610d6057600080fd5b8301601f81018513610d7157600080fd5b80356001600160401b03811115610d8757600080fd5b8560208260051b8401011115610c7b57600080fd5b602080825260139082015272556e617574686f72697a65642061636365737360681b604082015260600190565b634e487b7160e01b600052604160045260246000fd5b601f8201601f191681016001600160401b0381118282101715610e0457610e04610dc9565b6040525050565b60006001600160401b03821115610e2457610e24610dc9565b5060051b60200190565b60006001600160401b03821115610e4757610e47610dc9565b50601f01601f191660200190565b600082601f830112610e6657600080fd5b8135610e7181610e0b565b604051610e7e8282610ddf565b80915082815260208101915060208360051b860101925085831115610ea257600080fd5b602085015b83811015610f315780356001600160401b03811115610ec557600080fd5b8601603f81018813610ed657600080fd5b6020810135610ee481610e2e565b604051610ef18282610ddf565b8281526040848401018b1015610f0657600080fd5b8260408501602083013760006020848301015280875250505050602083019250602081019050610ea7565b5095945050505050565b600080600060608486031215610f5057600080fd5b83356001600160401b03811115610f6657600080fd5b8401601f81018613610f7757600080fd5b8035610f8281610e0b565b604051610f8f8282610ddf565b80915082815260208101915060208360051b850101925088831115610fb357600080fd5b6020840193505b82841015610fde578335610fcd81610c8b565b825260209384019390910190610fba565b955050505060208401356001600160401b03811115610ffc57600080fd5b61100886828701610e55565b93969395505050506040919091013590565b634e487b7160e01b600052603260045260246000fd5b602081526000610cbd6020830184610ce8565b600060033d111561105c5760046000803e5060005160e01c5b90565b600060443d101561106d5790565b6040513d600319016004823e80516001600160401b0381113d6024830111171561109657505090565b81810180516001600160401b038111156110b1575050505090565b3d84016003190182820160200111156110cb575050505090565b6110da60208285010185610ddf565b509392505050565b634e487b7160e01b600052601160045260246000fd5b60006001820161110a5761110a6110e2565b5060010190565b6020808252600d908201526c2ab735b737bbb71032b93937b960991b604082015260600190565b8082018082111561114b5761114b6110e2565b92915050565b60006020828403121561116357600080fd5b81516001600160401b0381111561117957600080fd5b8201601f8101841361118a57600080fd5b805161119581610e0b565b6040516111a28282610ddf565b80915082815260208101915060208360051b8501019250868311156111c657600080fd5b6020840193505b828410156111f15783516111e081610c8b565b8252602093840193909101906111cd565b9695505050505050565b602080825260009082015260400190565b6000806040838503121561121f57600080fd5b8251801515811461122f57600080fd5b60208401519092506001600160401b0381111561124b57600080fd5b8301601f8101851361125c57600080fd5b805161126781610e2e565b6040516112748282610ddf565b82815287602084860101111561128957600080fd5b61129a836020830160208701610cc4565b809450505050509250929050565b6060808252845190820181905260009060208601906080840190835b818110156112eb5783516001600160a01b03168352602093840193909201916001016112c4565b50508381036020850152809150855180825260208201925060208160051b8301016020880160005b8381101561134557601f1985840301865261132f838351610ce8565b6020968701969093509190910190600101611313565b50508094505050505082604083015294935050505056fe7a23462c60e2107b969e2096219ac3afd43fc33eb96c21e48066bb27f44d6d4ac1bdde18fe95d2ac9d4b5c41fbc291986236156aa281d12075c8ee91bfbdef07a264697066735822122090b2bc7b4378416bd3f51a01875b52bad089ba42569273a397eedc313457dff564736f6c634300081c0033",
  "linkReferences": {},
  "deployedLinkReferences": {}
}