{
  "_format": "hh-sol-artifact-1",
  "contractName": "TestContract",
  "sourceName": "contracts/TestContract.sol",
  "abi": [
    {
      "inputs": [
        {
          "internalType": "address",
          "name": "initialOwner",
          "type": "address"
        }
      ],
      "stateMutability": "nonpayable",
      "type": "constructor"
    },
    {
      "inputs": [
        {
          "internalType": "address",
          "name": "sender",
          "type": "address"
        },
        {
          "internalType": "uint256",
          "name": "tokenId",
          "type": "uint256"
        },
        {
          "internalType": "address",
          "name": "owner",
          "type": "address"
        }
      ],
      "name": "ERC721IncorrectOwner",
      "type": "error"
    },
    {
      "inputs": [
        {
          "internalType": "address",
          "name": "operator",
          "type": "address"
        },
        {
          "internalType": "uint256",
          "name": "tokenId",
          "type": "uint256"
        }
      ],
      "name": "ERC721InsufficientApproval",
      "type": "error"
    },
    {
      "inputs": [
        {
          "internalType": "address",
          "name": "approver",
          "type": "address"
        }
      ],
      "name": "ERC721InvalidApprover",
      "type": "error"
    },
    {
      "inputs": [
        {
          "internalType": "address",
          "name": "operator",
          "type": "address"
        }
      ],
      "name": "ERC721InvalidOperator",
      "type": "error"
    },
    {
      "inputs": [
        {
          "internalType": "address",
          "name": "owner",
          "type": "address"
        }
      ],
      "name": "ERC721InvalidOwner",
      "type": "error"
    },
    {
      "inputs": [
        {
          "internalType": "address",
          "name": "receiver",
          "type": "address"
        }
      ],
      "name": "ERC721InvalidReceiver",
      "type": "error"
    },
    {
      "inputs": [
        {
          "internalType": "address",
          "name": "sender",
          "type": "address"
        }
      ],
      "name": "ERC721InvalidSender",
      "type": "error"
    },
    {
      "inputs": [
        {
          "internalType": "uint256",
          "name": "tokenId",
          "type": "uint256"
        }
      ],
      "name": "ERC721NonexistentToken",
      "type": "error"
    },
    {
      "inputs": [
        {
          "internalType": "address",
          "name": "owner",
          "type": "address"
        }
      ],
      "name": "OwnableInvalidOwner",
      "type": "error"
    },
    {
      "inputs": [
        {
          "internalType": "address",
          "name": "account",
          "type": "address"
        }
      ],
      "name": "OwnableUnauthorizedAccount",
      "type": "error"
    },
    {
      "anonymous": false,
      "inputs": [
        {
          "indexed": true,
          "internalType": "address",
          "name": "owner",
          "type": "address"
        },
        {
          "indexed": true,
          "internalType": "address",
          "name": "approved",
          "type": "address"
        },
        {
          "indexed": true,
          "internalType": "uint256",
          "name": "tokenId",
          "type": "uint256"
        }
      ],
      "name": "Approval",
      "type": "event"
    },
    {
      "anonymous": false,
      "inputs": [
        {
          "indexed": true,
          "internalType": "address",
          "name": "owner",
          "type": "address"
        },
        {
          "indexed": true,
          "internalType": "address",
          "name": "operator",
          "type": "address"
        },
        {
          "indexed": false,
          "internalType": "bool",
          "name": "approved",
          "type": "bool"
        }
      ],
      "name": "ApprovalForAll",
      "type": "event"
    },
    {
      "anonymous": false,
      "inputs": [
        {
          "indexed": false,
          "internalType": "uint256",
          "name": "_fromTokenId",
          "type": "uint256"
        },
        {
          "indexed": false,
          "internalType": "uint256",
          "name": "_toTokenId",
          "type": "uint256"
        }
      ],
      "name": "BatchMetadataUpdate",
      "type": "event"
    },
    {
      "anonymous": false,
      "inputs": [
        {
          "indexed": false,
          "internalType": "uint256",
          "name": "_tokenId",
          "type": "uint256"
        }
      ],
      "name": "MetadataUpdate",
      "type": "event"
    },
    {
      "anonymous": false,
      "inputs": [
        {
          "indexed": true,
          "internalType": "address",
          "name": "previousOwner",
          "type": "address"
        },
        {
          "indexed": true,
          "internalType": "address",
          "name": "newOwner",
          "type": "address"
        }
      ],
      "name": "OwnershipTransferred",
      "type": "event"
    },
    {
      "anonymous": false,
      "inputs": [
        {
          "indexed": true,
          "internalType": "address",
          "name": "from",
          "type": "address"
        },
        {
          "indexed": true,
          "internalType": "address",
          "name": "to",
          "type": "address"
        },
        {
          "indexed": true,
          "internalType": "uint256",
          "name": "tokenId",
          "type": "uint256"
        }
      ],
      "name": "Transfer",
      "type": "event"
    },
    {
      "inputs": [],
      "name": "MAX_COMPANY_SUPPLY",
      "outputs": [
        {
          "internalType": "uint8",
          "name": "",
          "type": "uint8"
        }
      ],
      "stateMutability": "view",
      "type": "function"
    },
    {
      "inputs": [],
      "name": "MAX_STUDENT_SUPPLY",
      "outputs": [
        {
          "internalType": "uint8",
          "name": "",
          "type": "uint8"
        }
      ],
      "stateMutability": "view",
      "type": "function"
    },
    {
      "inputs": [
        {
          "internalType": "address",
          "name": "to",
          "type": "address"
        },
        {
          "internalType": "uint256",
          "name": "tokenId",
          "type": "uint256"
        }
      ],
      "name": "approve",
      "outputs": [],
      "stateMutability": "nonpayable",
      "type": "function"
    },
    {
      "inputs": [
        {
          "internalType": "address",
          "name": "owner",
          "type": "address"
        }
      ],
      "name": "balanceOf",
      "outputs": [
        {
          "internalType": "uint256",
          "name": "",
          "type": "uint256"
        }
      ],
      "stateMutability": "view",
      "type": "function"
    },
    {
      "inputs": [],
      "name": "companySupply",
      "outputs": [
        {
          "internalType": "uint8",
          "name": "",
          "type": "uint8"
        }
      ],
      "stateMutability": "view",
      "type": "function"
    },
    {
      "inputs": [
        {
          "internalType": "uint256",
          "name": "tokenId",
          "type": "uint256"
        }
      ],
      "name": "getApproved",
      "outputs": [
        {
          "internalType": "address",
          "name": "",
          "type": "address"
        }
      ],
      "stateMutability": "view",
      "type": "function"
    },
    {
      "inputs": [
        {
          "internalType": "address",
          "name": "",
          "type": "address"
        }
      ],
      "name": "hasRoleNFT",
      "outputs": [
        {
          "internalType": "bool",
          "name": "",
          "type": "bool"
        }
      ],
      "stateMutability": "view",
      "type": "function"
    },
    {
      "inputs": [
        {
          "internalType": "address",
          "name": "owner",
          "type": "address"
        },
        {
          "internalType": "address",
          "name": "operator",
          "type": "address"
        }
      ],
      "name": "isApprovedForAll",
      "outputs": [
        {
          "internalType": "bool",
          "name": "",
          "type": "bool"
        }
      ],
      "stateMutability": "view",
      "type": "function"
    },
    {
      "inputs": [],
      "name": "name",
      "outputs": [
        {
          "internalType": "string",
          "name": "",
          "type": "string"
        }
      ],
      "stateMutability": "view",
      "type": "function"
    },
    {
      "inputs": [],
      "name": "owner",
      "outputs": [
        {
          "internalType": "address",
          "name": "",
          "type": "address"
        }
      ],
      "stateMutability": "view",
      "type": "function"
    },
    {
      "inputs": [
        {
          "internalType": "uint256",
          "name": "tokenId",
          "type": "uint256"
        }
      ],
      "name": "ownerOf",
      "outputs": [
        {
          "internalType": "address",
          "name": "",
          "type": "address"
        }
      ],
      "stateMutability": "view",
      "type": "function"
    },
    {
      "inputs": [],
      "name": "renounceOwnership",
      "outputs": [],
      "stateMutability": "nonpayable",
      "type": "function"
    },
    {
      "inputs": [
        {
          "internalType": "address",
          "name": "to",
          "type": "address"
        },
        {
          "internalType": "string",
          "name": "metadataCID",
          "type": "string"
        }
      ],
      "name": "safeMintCompany",
      "outputs": [
        {
          "internalType": "uint256",
          "name": "",
          "type": "uint256"
        }
      ],
      "stateMutability": "nonpayable",
      "type": "function"
    },
    {
      "inputs": [
        {
          "internalType": "address",
          "name": "to",
          "type": "address"
        },
        {
          "internalType": "string",
          "name": "metadataCID",
          "type": "string"
        }
      ],
      "name": "safeMintStudent",
      "outputs": [
        {
          "internalType": "uint256",
          "name": "",
          "type": "uint256"
        }
      ],
      "stateMutability": "nonpayable",
      "type": "function"
    },
    {
      "inputs": [
        {
          "internalType": "address",
          "name": "from",
          "type": "address"
        },
        {
          "internalType": "address",
          "name": "to",
          "type": "address"
        },
        {
          "internalType": "uint256",
          "name": "tokenId",
          "type": "uint256"
        }
      ],
      "name": "safeTransferFrom",
      "outputs": [],
      "stateMutability": "nonpayable",
      "type": "function"
    },
    {
      "inputs": [
        {
          "internalType": "address",
          "name": "from",
          "type": "address"
        },
        {
          "internalType": "address",
          "name": "to",
          "type": "address"
        },
        {
          "internalType": "uint256",
          "name": "tokenId",
          "type": "uint256"
        },
        {
          "internalType": "bytes",
          "name": "data",
          "type": "bytes"
        }
      ],
      "name": "safeTransferFrom",
      "outputs": [],
      "stateMutability": "nonpayable",
      "type": "function"
    },
    {
      "inputs": [
        {
          "internalType": "address",
          "name": "operator",
          "type": "address"
        },
        {
          "internalType": "bool",
          "name": "approved",
          "type": "bool"
        }
      ],
      "name": "setApprovalForAll",
      "outputs": [],
      "stateMutability": "nonpayable",
      "type": "function"
    },
    {
      "inputs": [],
      "name": "studentSupply",
      "outputs": [
        {
          "internalType": "uint8",
          "name": "",
          "type": "uint8"
        }
      ],
      "stateMutability": "view",
      "type": "function"
    },
    {
      "inputs": [
        {
          "internalType": "bytes4",
          "name": "interfaceId",
          "type": "bytes4"
        }
      ],
      "name": "supportsInterface",
      "outputs": [
        {
          "internalType": "bool",
          "name": "",
          "type": "bool"
        }
      ],
      "stateMutability": "view",
      "type": "function"
    },
    {
      "inputs": [],
      "name": "symbol",
      "outputs": [
        {
          "internalType": "string",
          "name": "",
          "type": "string"
        }
      ],
      "stateMutability": "view",
      "type": "function"
    },
    {
      "inputs": [
        {
          "internalType": "uint256",
          "name": "tokenId",
          "type": "uint256"
        }
      ],
      "name": "tokenURI",
      "outputs": [
        {
          "internalType": "string",
          "name": "",
          "type": "string"
        }
      ],
      "stateMutability": "view",
      "type": "function"
    },
    {
      "inputs": [
        {
          "internalType": "address",
          "name": "from",
          "type": "address"
        },
        {
          "internalType": "address",
          "name": "to",
          "type": "address"
        },
        {
          "internalType": "uint256",
          "name": "tokenId",
          "type": "uint256"
        }
      ],
      "name": "transferFrom",
      "outputs": [],
      "stateMutability": "nonpayable",
      "type": "function"
    },
    {
      "inputs": [
        {
          "internalType": "address",
          "name": "newOwner",
          "type": "address"
        }
      ],
      "name": "transferOwnership",
      "outputs": [],
      "stateMutability": "nonpayable",
      "type": "function"
    },
    {
      "inputs": [
        {
          "internalType": "address",
          "name": "",
          "type": "address"
        }
      ],
      "name": "userTokenId",
      "outputs": [
        {
          "internalType": "uint256",
          "name": "",
          "type": "uint256"
        }
      ],
      "stateMutability": "view",
      "type": "function"
    }
  ],
  "bytecode": "0x608060405234801561001057600080fd5b5060405161346738038061346783398181016040528101906100329190610272565b806040518060400160405280600781526020017f526f6c654e4654000000000000000000000000000000000000000000000000008152506040518060400160405280600481526020017f524f4c450000000000000000000000000000000000000000000000000000000081525081600090816100ae91906104ef565b5080600190816100be91906104ef565b505050600073ffffffffffffffffffffffffffffffffffffffff168173ffffffffffffffffffffffffffffffffffffffff16036101335760006040517f1e4fbdf700000000000000000000000000000000000000000000000000000000815260040161012a91906105d0565b60405180910390fd5b6101428161014960201b60201c565b50506105eb565b6000600760009054906101000a900473ffffffffffffffffffffffffffffffffffffffff16905081600760006101000a81548173ffffffffffffffffffffffffffffffffffffffff021916908373ffffffffffffffffffffffffffffffffffffffff1602179055508173ffffffffffffffffffffffffffffffffffffffff168173ffffffffffffffffffffffffffffffffffffffff167f8be0079c531659141344cd1fd0a4f28419497f9722a3daafe3b4186f6b6457e060405160405180910390a35050565b600080fd5b600073ffffffffffffffffffffffffffffffffffffffff82169050919050565b600061023f82610214565b9050919050565b61024f81610234565b811461025a57600080fd5b50565b60008151905061026c81610246565b92915050565b6000602082840312156102885761028761020f565b5b60006102968482850161025d565b91505092915050565b600081519050919050565b7f4e487b7100000000000000000000000000000000000000000000000000000000600052604160045260246000fd5b7f4e487b7100000000000000000000000000000000000000000000000000000000600052602260045260246000fd5b6000600282049050600182168061032057607f821691505b602082108103610333576103326102d9565b5b50919050565b60008190508160005260206000209050919050565b60006020601f8301049050919050565b600082821b905092915050565b60006008830261039b7fffffffffffffffffffffffffffffffffffffffffffffffffffffffffffffffff8261035e565b6103a5868361035e565b95508019841693508086168417925050509392505050565b6000819050919050565b6000819050919050565b60006103ec6103e76103e2846103bd565b6103c7565b6103bd565b9050919050565b6000819050919050565b610406836103d1565b61041a610412826103f3565b84845461036b565b825550505050565b600090565b61042f610422565b61043a8184846103fd565b505050565b5b8181101561045e57610453600082610427565b600181019050610440565b5050565b601f8211156104a35761047481610339565b61047d8461034e565b8101602085101561048c578190505b6104a06104988561034e565b83018261043f565b50505b505050565b600082821c905092915050565b60006104c6600019846008026104a8565b1980831691505092915050565b60006104df83836104b5565b9150826002028217905092915050565b6104f88261029f565b67ffffffffffffffff811115610511576105106102aa565b5b61051b8254610308565b610526828285610462565b600060209050601f8311600181146105595760008415610547578287015190505b61055185826104d3565b8655506105b9565b601f19841661056786610339565b60005b8281101561058f5784890151825560018201915060208501945060208101905061056a565b868310156105ac57848901516105a8601f8916826104b5565b8355505b6001600288020188555050505b505050505050565b6105ca81610234565b82525050565b60006020820190506105e560008301846105c1565b92915050565b612e6d806105fa6000396000f3fe608060405234801561001057600080fd5b50600436106101585760003560e01c80637cdb6f1f116100c3578063b88d4fde1161007c578063b88d4fde146103db578063c87b56dd146103f7578063e245669114610427578063e3d5df0414610457578063e985e9c514610475578063f2fde38b146104a557610158565b80637cdb6f1f1461031757806383eb7257146103355780638da5cb5b1461035357806395d89b4114610371578063a22cb4651461038f578063b58bffca146103ab57610158565b80635c2f5a02116101155780635c2f5a021461022f5780636352211e1461024d57806366df93171461027d57806370a08231146102ad578063715018a6146102dd578063715ca542146102e757610158565b806301ffc9a71461015d57806306fdde031461018d578063081812fc146101ab578063095ea7b3146101db57806323b872dd146101f757806342842e0e14610213575b600080fd5b610177600480360381019061017291906120b3565b6104c1565b60405161018491906120fb565b60405180910390f35b6101956104d3565b6040516101a291906121a6565b60405180910390f35b6101c560048036038101906101c091906121fe565b610565565b6040516101d2919061226c565b60405180910390f35b6101f560048036038101906101f091906122b3565b610581565b005b610211600480360381019061020c91906122f3565b610597565b005b61022d600480360381019061022891906122f3565b610699565b005b6102376106b9565b6040516102449190612362565b60405180910390f35b610267600480360381019061026291906121fe565b6106cc565b604051610274919061226c565b60405180910390f35b610297600480360381019061029291906124b2565b6106de565b6040516102a4919061251d565b60405180910390f35b6102c760048036038101906102c29190612538565b6108fd565b6040516102d4919061251d565b60405180910390f35b6102e56109b7565b005b61030160048036038101906102fc9190612538565b6109cb565b60405161030e919061251d565b60405180910390f35b61031f6109e3565b60405161032c9190612362565b60405180910390f35b61033d6109e8565b60405161034a9190612362565b60405180910390f35b61035b6109fb565b604051610368919061226c565b60405180910390f35b610379610a25565b60405161038691906121a6565b60405180910390f35b6103a960048036038101906103a49190612591565b610ab7565b005b6103c560048036038101906103c091906124b2565b610acd565b6040516103d2919061251d565b60405180910390f35b6103f560048036038101906103f09190612672565b610cec565b005b610411600480360381019061040c91906121fe565b610d11565b60405161041e91906121a6565b60405180910390f35b610441600480360381019061043c9190612538565b610d23565b60405161044e91906120fb565b60405180910390f35b61045f610d43565b60405161046c9190612362565b60405180910390f35b61048f600480360381019061048a91906126f5565b610d48565b60405161049c91906120fb565b60405180910390f35b6104bf60048036038101906104ba9190612538565b610ddc565b005b60006104cc82610e62565b9050919050565b6060600080546104e290612764565b80601f016020809104026020016040519081016040528092919081815260200182805461050e90612764565b801561055b5780601f106105305761010080835404028352916020019161055b565b820191906000526020600020905b81548152906001019060200180831161053e57829003601f168201915b5050505050905090565b600061057082610ec3565b5061057a82610f4b565b9050919050565b610593828261058e610f88565b610f90565b5050565b600073ffffffffffffffffffffffffffffffffffffffff168273ffffffffffffffffffffffffffffffffffffffff16036106095760006040517f64a0ae92000000000000000000000000000000000000000000000000000000008152600401610600919061226c565b60405180910390fd5b600061061d8383610618610f88565b610fa2565b90508373ffffffffffffffffffffffffffffffffffffffff168173ffffffffffffffffffffffffffffffffffffffff1614610693578382826040517f64283d7b00000000000000000000000000000000000000000000000000000000815260040161068a93929190612795565b60405180910390fd5b50505050565b6106b483838360405180602001604052806000815250610cec565b505050565b600960009054906101000a900460ff1681565b60006106d782610ec3565b9050919050565b60006106e86111bc565b603260ff16600960009054906101000a900460ff1660ff1610610740576040517f08c379a000000000000000000000000000000000000000000000000000000000815260040161073790612818565b60405180910390fd5b600a60008473ffffffffffffffffffffffffffffffffffffffff1673ffffffffffffffffffffffffffffffffffffffff16815260200190815260200160002060009054906101000a900460ff16156107cd576040517f08c379a00000000000000000000000000000000000000000000000000000000081526004016107c490612884565b60405180910390fd5b600060085490506107de8482611243565b61080781846040516020016107f3919061292c565b604051602081830303815290604052611261565b6009600081819054906101000a900460ff16809291906108269061297d565b91906101000a81548160ff021916908360ff160217905550506001600a60008673ffffffffffffffffffffffffffffffffffffffff1673ffffffffffffffffffffffffffffffffffffffff16815260200190815260200160002060006101000a81548160ff02191690831515021790555080600b60008673ffffffffffffffffffffffffffffffffffffffff1673ffffffffffffffffffffffffffffffffffffffff16815260200190815260200160002081905550600860008154809291906108ee906129a6565b91905055508091505092915050565b60008073ffffffffffffffffffffffffffffffffffffffff168273ffffffffffffffffffffffffffffffffffffffff16036109705760006040517f89c62b64000000000000000000000000000000000000000000000000000000008152600401610967919061226c565b60405180910390fd5b600360008373ffffffffffffffffffffffffffffffffffffffff1673ffffffffffffffffffffffffffffffffffffffff168152602001908152602001600020549050919050565b6109bf6111bc565b6109c960006112bd565b565b600b6020528060005260406000206000915090505481565b603281565b600960019054906101000a900460ff1681565b6000600760009054906101000a900473ffffffffffffffffffffffffffffffffffffffff16905090565b606060018054610a3490612764565b80601f0160208091040260200160405190810160405280929190818152602001828054610a6090612764565b8015610aad5780601f10610a8257610100808354040283529160200191610aad565b820191906000526020600020905b815481529060010190602001808311610a9057829003601f168201915b5050505050905090565b610ac9610ac2610f88565b8383611383565b5050565b6000610ad76111bc565b603260ff16600960019054906101000a900460ff1660ff1610610b2f576040517f08c379a0000000000000000000000000000000000000000000000000000000008152600401610b2690612a3a565b60405180910390fd5b600a60008473ffffffffffffffffffffffffffffffffffffffff1673ffffffffffffffffffffffffffffffffffffffff16815260200190815260200160002060009054906101000a900460ff1615610bbc576040517f08c379a0000000000000000000000000000000000000000000000000000000008152600401610bb390612884565b60405180910390fd5b60006008549050610bcd8482611243565b610bf68184604051602001610be2919061292c565b604051602081830303815290604052611261565b6009600181819054906101000a900460ff1680929190610c159061297d565b91906101000a81548160ff021916908360ff160217905550506001600a60008673ffffffffffffffffffffffffffffffffffffffff1673ffffffffffffffffffffffffffffffffffffffff16815260200190815260200160002060006101000a81548160ff02191690831515021790555080600b60008673ffffffffffffffffffffffffffffffffffffffff1673ffffffffffffffffffffffffffffffffffffffff1681526020019081526020016000208190555060086000815480929190610cdd906129a6565b91905055508091505092915050565b610cf7848484610597565b610d0b610d02610f88565b858585856114f2565b50505050565b6060610d1c826116a3565b9050919050565b600a6020528060005260406000206000915054906101000a900460ff1681565b603281565b6000600560008473ffffffffffffffffffffffffffffffffffffffff1673ffffffffffffffffffffffffffffffffffffffff16815260200190815260200160002060008373ffffffffffffffffffffffffffffffffffffffff1673ffffffffffffffffffffffffffffffffffffffff16815260200190815260200160002060009054906101000a900460ff16905092915050565b610de46111bc565b600073ffffffffffffffffffffffffffffffffffffffff168173ffffffffffffffffffffffffffffffffffffffff1603610e565760006040517f1e4fbdf7000000000000000000000000000000000000000000000000000000008152600401610e4d919061226c565b60405180910390fd5b610e5f816112bd565b50565b6000634906490660e01b7bffffffffffffffffffffffffffffffffffffffffffffffffffffffff1916827bffffffffffffffffffffffffffffffffffffffffffffffffffffffff19161480610ebc5750610ebb826117b6565b5b9050919050565b600080610ecf83611898565b9050600073ffffffffffffffffffffffffffffffffffffffff168173ffffffffffffffffffffffffffffffffffffffff1603610f4257826040517f7e273289000000000000000000000000000000000000000000000000000000008152600401610f39919061251d565b60405180910390fd5b80915050919050565b60006004600083815260200190815260200160002060009054906101000a900473ffffffffffffffffffffffffffffffffffffffff169050919050565b600033905090565b610f9d83838360016118d5565b505050565b600080610fae84611898565b9050600073ffffffffffffffffffffffffffffffffffffffff168373ffffffffffffffffffffffffffffffffffffffff1614610ff057610fef818486611a9a565b5b600073ffffffffffffffffffffffffffffffffffffffff168173ffffffffffffffffffffffffffffffffffffffff1614611081576110326000856000806118d5565b6001600360008373ffffffffffffffffffffffffffffffffffffffff1673ffffffffffffffffffffffffffffffffffffffff168152602001908152602001600020600082825403925050819055505b600073ffffffffffffffffffffffffffffffffffffffff168573ffffffffffffffffffffffffffffffffffffffff1614611104576001600360008773ffffffffffffffffffffffffffffffffffffffff1673ffffffffffffffffffffffffffffffffffffffff168152602001908152602001600020600082825401925050819055505b846002600086815260200190815260200160002060006101000a81548173ffffffffffffffffffffffffffffffffffffffff021916908373ffffffffffffffffffffffffffffffffffffffff160217905550838573ffffffffffffffffffffffffffffffffffffffff168273ffffffffffffffffffffffffffffffffffffffff167fddf252ad1be2c89b69c2b068fc378daa952ba7f163c4a11628f55a4df523b3ef60405160405180910390a4809150509392505050565b6111c4610f88565b73ffffffffffffffffffffffffffffffffffffffff166111e26109fb565b73ffffffffffffffffffffffffffffffffffffffff161461124157611205610f88565b6040517f118cdaa7000000000000000000000000000000000000000000000000000000008152600401611238919061226c565b60405180910390fd5b565b61125d828260405180602001604052806000815250611b5e565b5050565b806006600084815260200190815260200160002090816112819190612c06565b507ff8e1a15aba9398e019f0b49df1a4fde98ee17ae345cb5f6b5e2c27f5033e8ce7826040516112b1919061251d565b60405180910390a15050565b6000600760009054906101000a900473ffffffffffffffffffffffffffffffffffffffff16905081600760006101000a81548173ffffffffffffffffffffffffffffffffffffffff021916908373ffffffffffffffffffffffffffffffffffffffff1602179055508173ffffffffffffffffffffffffffffffffffffffff168173ffffffffffffffffffffffffffffffffffffffff167f8be0079c531659141344cd1fd0a4f28419497f9722a3daafe3b4186f6b6457e060405160405180910390a35050565b600073ffffffffffffffffffffffffffffffffffffffff168273ffffffffffffffffffffffffffffffffffffffff16036113f457816040517f5b08ba180000000000000000000000000000000000000000000000000000000081526004016113eb919061226c565b60405180910390fd5b80600560008573ffffffffffffffffffffffffffffffffffffffff1673ffffffffffffffffffffffffffffffffffffffff16815260200190815260200160002060008473ffffffffffffffffffffffffffffffffffffffff1673ffffffffffffffffffffffffffffffffffffffff16815260200190815260200160002060006101000a81548160ff0219169083151502179055508173ffffffffffffffffffffffffffffffffffffffff168373ffffffffffffffffffffffffffffffffffffffff167f17307eab39ab6107e8899845ad3d59bd9653f200f220920489ca2b5937696c31836040516114e591906120fb565b60405180910390a3505050565b60008373ffffffffffffffffffffffffffffffffffffffff163b111561169c578273ffffffffffffffffffffffffffffffffffffffff1663150b7a02868685856040518563ffffffff1660e01b81526004016115519493929190612d2d565b6020604051808303816000875af192505050801561158d57506040513d601f19601f8201168201806040525081019061158a9190612d8e565b60015b611611573d80600081146115bd576040519150601f19603f3d011682016040523d82523d6000602084013e6115c2565b606091505b50600081510361160957836040517f64a0ae92000000000000000000000000000000000000000000000000000000008152600401611600919061226c565b60405180910390fd5b805181602001fd5b63150b7a0260e01b7bffffffffffffffffffffffffffffffffffffffffffffffffffffffff1916817bffffffffffffffffffffffffffffffffffffffffffffffffffffffff19161461169a57836040517f64a0ae92000000000000000000000000000000000000000000000000000000008152600401611691919061226c565b60405180910390fd5b505b5050505050565b60606116ae82610ec3565b5060006006600084815260200190815260200160002080546116cf90612764565b80601f01602080910402602001604051908101604052809291908181526020018280546116fb90612764565b80156117485780601f1061171d57610100808354040283529160200191611748565b820191906000526020600020905b81548152906001019060200180831161172b57829003601f168201915b505050505090506000611759611b82565b9050600081510361176e5781925050506117b1565b6000825111156117a357808260405160200161178b929190612dbb565b604051602081830303815290604052925050506117b1565b6117ac84611b99565b925050505b919050565b60007f80ac58cd000000000000000000000000000000000000000000000000000000007bffffffffffffffffffffffffffffffffffffffffffffffffffffffff1916827bffffffffffffffffffffffffffffffffffffffffffffffffffffffff1916148061188157507f5b5e139f000000000000000000000000000000000000000000000000000000007bffffffffffffffffffffffffffffffffffffffffffffffffffffffff1916827bffffffffffffffffffffffffffffffffffffffffffffffffffffffff1916145b80611891575061189082611c02565b5b9050919050565b60006002600083815260200190815260200160002060009054906101000a900473ffffffffffffffffffffffffffffffffffffffff169050919050565b808061190e5750600073ffffffffffffffffffffffffffffffffffffffff168273ffffffffffffffffffffffffffffffffffffffff1614155b15611a4257600061191e84610ec3565b9050600073ffffffffffffffffffffffffffffffffffffffff168373ffffffffffffffffffffffffffffffffffffffff161415801561198957508273ffffffffffffffffffffffffffffffffffffffff168173ffffffffffffffffffffffffffffffffffffffff1614155b801561199c575061199a8184610d48565b155b156119de57826040517fa9fbf51f0000000000000000000000000000000000000000000000000000000081526004016119d5919061226c565b60405180910390fd5b8115611a4057838573ffffffffffffffffffffffffffffffffffffffff168273ffffffffffffffffffffffffffffffffffffffff167f8c5be1e5ebec7d5bd14f71427d1e84f3dd0314c0f7b2291e5b200ac8c7c3b92560405160405180910390a45b505b836004600085815260200190815260200160002060006101000a81548173ffffffffffffffffffffffffffffffffffffffff021916908373ffffffffffffffffffffffffffffffffffffffff16021790555050505050565b611aa5838383611c6c565b611b5957600073ffffffffffffffffffffffffffffffffffffffff168373ffffffffffffffffffffffffffffffffffffffff1603611b1a57806040517f7e273289000000000000000000000000000000000000000000000000000000008152600401611b11919061251d565b60405180910390fd5b81816040517f177e802f000000000000000000000000000000000000000000000000000000008152600401611b50929190612ddf565b60405180910390fd5b505050565b611b688383611d2d565b611b7d611b73610f88565b60008585856114f2565b505050565b606060405180602001604052806000815250905090565b6060611ba482610ec3565b506000611baf611b82565b90506000815111611bcf5760405180602001604052806000815250611bfa565b80611bd984611e26565b604051602001611bea929190612dbb565b6040516020818303038152906040525b915050919050565b60007f01ffc9a7000000000000000000000000000000000000000000000000000000007bffffffffffffffffffffffffffffffffffffffffffffffffffffffff1916827bffffffffffffffffffffffffffffffffffffffffffffffffffffffff1916149050919050565b60008073ffffffffffffffffffffffffffffffffffffffff168373ffffffffffffffffffffffffffffffffffffffff1614158015611d2457508273ffffffffffffffffffffffffffffffffffffffff168473ffffffffffffffffffffffffffffffffffffffff161480611ce55750611ce48484610d48565b5b80611d2357508273ffffffffffffffffffffffffffffffffffffffff16611d0b83610f4b565b73ffffffffffffffffffffffffffffffffffffffff16145b5b90509392505050565b600073ffffffffffffffffffffffffffffffffffffffff168273ffffffffffffffffffffffffffffffffffffffff1603611d9f5760006040517f64a0ae92000000000000000000000000000000000000000000000000000000008152600401611d96919061226c565b60405180910390fd5b6000611dad83836000610fa2565b9050600073ffffffffffffffffffffffffffffffffffffffff168173ffffffffffffffffffffffffffffffffffffffff1614611e215760006040517f73c6ac6e000000000000000000000000000000000000000000000000000000008152600401611e18919061226c565b60405180910390fd5b505050565b606060006001611e3584611ef4565b01905060008167ffffffffffffffff811115611e5457611e53612387565b5b6040519080825280601f01601f191660200182016040528015611e865781602001600182028036833780820191505090505b509050600082602001820190505b600115611ee9578080600190039150507f3031323334353637383961626364656600000000000000000000000000000000600a86061a8153600a8581611edd57611edc612e08565b5b04945060008503611e94575b819350505050919050565b600080600090507a184f03e93ff9f4daa797ed6e38ed64bf6a1f0100000000000000008310611f52577a184f03e93ff9f4daa797ed6e38ed64bf6a1f0100000000000000008381611f4857611f47612e08565b5b0492506040810190505b6d04ee2d6d415b85acef81000000008310611f8f576d04ee2d6d415b85acef81000000008381611f8557611f84612e08565b5b0492506020810190505b662386f26fc100008310611fbe57662386f26fc100008381611fb457611fb3612e08565b5b0492506010810190505b6305f5e1008310611fe7576305f5e1008381611fdd57611fdc612e08565b5b0492506008810190505b612710831061200c57612710838161200257612001612e08565b5b0492506004810190505b6064831061202f576064838161202557612024612e08565b5b0492506002810190505b600a831061203e576001810190505b80915050919050565b6000604051905090565b600080fd5b600080fd5b60007fffffffff0000000000000000000000000000000000000000000000000000000082169050919050565b6120908161205b565b811461209b57600080fd5b50565b6000813590506120ad81612087565b92915050565b6000602082840312156120c9576120c8612051565b5b60006120d78482850161209e565b91505092915050565b60008115159050919050565b6120f5816120e0565b82525050565b600060208201905061211060008301846120ec565b92915050565b600081519050919050565b600082825260208201905092915050565b60005b83811015612150578082015181840152602081019050612135565b60008484015250505050565b6000601f19601f8301169050919050565b600061217882612116565b6121828185612121565b9350612192818560208601612132565b61219b8161215c565b840191505092915050565b600060208201905081810360008301526121c0818461216d565b905092915050565b6000819050919050565b6121db816121c8565b81146121e657600080fd5b50565b6000813590506121f8816121d2565b92915050565b60006020828403121561221457612213612051565b5b6000612222848285016121e9565b91505092915050565b600073ffffffffffffffffffffffffffffffffffffffff82169050919050565b60006122568261222b565b9050919050565b6122668161224b565b82525050565b6000602082019050612281600083018461225d565b92915050565b6122908161224b565b811461229b57600080fd5b50565b6000813590506122ad81612287565b92915050565b600080604083850312156122ca576122c9612051565b5b60006122d88582860161229e565b92505060206122e9858286016121e9565b9150509250929050565b60008060006060848603121561230c5761230b612051565b5b600061231a8682870161229e565b935050602061232b8682870161229e565b925050604061233c868287016121e9565b9150509250925092565b600060ff82169050919050565b61235c81612346565b82525050565b60006020820190506123776000830184612353565b92915050565b600080fd5b600080fd5b7f4e487b7100000000000000000000000000000000000000000000000000000000600052604160045260246000fd5b6123bf8261215c565b810181811067ffffffffffffffff821117156123de576123dd612387565b5b80604052505050565b60006123f1612047565b90506123fd82826123b6565b919050565b600067ffffffffffffffff82111561241d5761241c612387565b5b6124268261215c565b9050602081019050919050565b82818337600083830152505050565b600061245561245084612402565b6123e7565b90508281526020810184848401111561247157612470612382565b5b61247c848285612433565b509392505050565b600082601f8301126124995761249861237d565b5b81356124a9848260208601612442565b91505092915050565b600080604083850312156124c9576124c8612051565b5b60006124d78582860161229e565b925050602083013567ffffffffffffffff8111156124f8576124f7612056565b5b61250485828601612484565b9150509250929050565b612517816121c8565b82525050565b6000602082019050612532600083018461250e565b92915050565b60006020828403121561254e5761254d612051565b5b600061255c8482850161229e565b91505092915050565b61256e816120e0565b811461257957600080fd5b50565b60008135905061258b81612565565b92915050565b600080604083850312156125a8576125a7612051565b5b60006125b68582860161229e565b92505060206125c78582860161257c565b9150509250929050565b600067ffffffffffffffff8211156125ec576125eb612387565b5b6125f58261215c565b9050602081019050919050565b6000612615612610846125d1565b6123e7565b90508281526020810184848401111561263157612630612382565b5b61263c848285612433565b509392505050565b600082601f8301126126595761265861237d565b5b8135612669848260208601612602565b91505092915050565b6000806000806080858703121561268c5761268b612051565b5b600061269a8782880161229e565b94505060206126ab8782880161229e565b93505060406126bc878288016121e9565b925050606085013567ffffffffffffffff8111156126dd576126dc612056565b5b6126e987828801612644565b91505092959194509250565b6000806040838503121561270c5761270b612051565b5b600061271a8582860161229e565b925050602061272b8582860161229e565b9150509250929050565b7f4e487b7100000000000000000000000000000000000000000000000000000000600052602260045260246000fd5b6000600282049050600182168061277c57607f821691505b60208210810361278f5761278e612735565b5b50919050565b60006060820190506127aa600083018661225d565b6127b7602083018561250e565b6127c4604083018461225d565b949350505050565b7f53747564656e7420737570706c79206c696d6974207265616368656400000000600082015250565b6000612802601c83612121565b915061280d826127cc565b602082019050919050565b60006020820190508181036000830152612831816127f5565b9050919050565b7f5573657220616c7265616479206f776e73206120526f6c654e46540000000000600082015250565b600061286e601b83612121565b915061287982612838565b602082019050919050565b6000602082019050818103600083015261289d81612861565b9050919050565b600081905092915050565b7f68747470733a2f2f697066732e696f2f697066732f0000000000000000000000600082015250565b60006128e56015836128a4565b91506128f0826128af565b601582019050919050565b600061290682612116565b61291081856128a4565b9350612920818560208601612132565b80840191505092915050565b6000612937826128d8565b915061294382846128fb565b915081905092915050565b7f4e487b7100000000000000000000000000000000000000000000000000000000600052601160045260246000fd5b600061298882612346565b915060ff820361299b5761299a61294e565b5b600182019050919050565b60006129b1826121c8565b91507fffffffffffffffffffffffffffffffffffffffffffffffffffffffffffffffff82036129e3576129e261294e565b5b600182019050919050565b7f436f6d70616e7920737570706c79206c696d6974207265616368656400000000600082015250565b6000612a24601c83612121565b9150612a2f826129ee565b602082019050919050565b60006020820190508181036000830152612a5381612a17565b9050919050565b60008190508160005260206000209050919050565b60006020601f8301049050919050565b600082821b905092915050565b600060088302612abc7fffffffffffffffffffffffffffffffffffffffffffffffffffffffffffffffff82612a7f565b612ac68683612a7f565b95508019841693508086168417925050509392505050565b6000819050919050565b6000612b03612afe612af9846121c8565b612ade565b6121c8565b9050919050565b6000819050919050565b612b1d83612ae8565b612b31612b2982612b0a565b848454612a8c565b825550505050565b600090565b612b46612b39565b612b51818484612b14565b505050565b5b81811015612b7557612b6a600082612b3e565b600181019050612b57565b5050565b601f821115612bba57612b8b81612a5a565b612b9484612a6f565b81016020851015612ba3578190505b612bb7612baf85612a6f565b830182612b56565b50505b505050565b600082821c905092915050565b6000612bdd60001984600802612bbf565b1980831691505092915050565b6000612bf68383612bcc565b9150826002028217905092915050565b612c0f82612116565b67ffffffffffffffff811115612c2857612c27612387565b5b612c328254612764565b612c3d828285612b79565b600060209050601f831160018114612c705760008415612c5e578287015190505b612c688582612bea565b865550612cd0565b601f198416612c7e86612a5a565b60005b82811015612ca657848901518255600182019150602085019450602081019050612c81565b86831015612cc35784890151612cbf601f891682612bcc565b8355505b6001600288020188555050505b505050505050565b600081519050919050565b600082825260208201905092915050565b6000612cff82612cd8565b612d098185612ce3565b9350612d19818560208601612132565b612d228161215c565b840191505092915050565b6000608082019050612d42600083018761225d565b612d4f602083018661225d565b612d5c604083018561250e565b8181036060830152612d6e8184612cf4565b905095945050505050565b600081519050612d8881612087565b92915050565b600060208284031215612da457612da3612051565b5b6000612db284828501612d79565b91505092915050565b6000612dc782856128fb565b9150612dd382846128fb565b91508190509392505050565b6000604082019050612df4600083018561225d565b612e01602083018461250e565b9392505050565b7f4e487b7100000000000000000000000000000000000000000000000000000000600052601260045260246000fdfea264697066735822122003e0aad68199ab4b1ba21ed477cbbf3d10688824be59cd0b147ea52c9dafa1b264736f6c634300081c0033",
  "linkReferences": {},
  "deployedLinkReferences": {}
}